:10400000007F0020D98E0000818D0000D58E000039
:10401000D58E0000D58E0000D58E0000D58E000014
:10402000000000000000000000000000D58E00002D
:10403000D58E000000000000D58E0000D58E000057
:104040000000000000000000000000000000000070
:104050000000000000000000000000000000000060
:104060000000000000000000000000000000000050
:104070000000000000000000000000000000000040
:104080000000000000000000000000000000000030
:104090000000000000000000000000000000000020
:1040A0000000000000000000000000000000000010
:1040B0000000000000000000000000000000000000
:1040C00010B5054C237833B9044B13B10448AFF352
:1040D00000800123237010BD60020020000000005A
:1040E000D029010008B5034B1BB103490348AFF3C6
:1040F000008008BD0000000064020020D0290100FB
:1041000038B5012204460D46002100F02FF929465A
:10411000204607F0BDF84FF4FA7007F0F9FD20468D
:1041200000F010F900221146204600F01FF9294640
:10413000204607F0ADF80A20BDE8384007F0E8BD9A
:10414000F0B51C4B1C4C18781C4F1D4E89B000223A
:104150004FF4DC7106F010FD00256368CDE90473AF
:10416000237A8DF81830637A8DF81930A37A8DF898
:104170001A30E37A8DF81B30237B8DF81C30637B7B
:104180008DF81D300C21A37B8DF81E3001FB0561DD
:10419000E37B8DF81F3001A807F01CF901A904A8E2
:1041A000FFF7AEFF013501A807F0A8F8032DD4D121
:1041B00009B0F0BD000000207C020020541A01006C
:1041C0008C02002010B50B4C0B4802231022272133
:1041D00000F05AF80949204607F0DBF8084904F1D5
:1041E0000C0007F0D6F804F118000649BDE81040AD
:1041F00007F0CFB88C0200207C0200202C1A0100AE
:104200003B1A0100421A010010B5074C04F11800D6
:1042100007F074F804F10C0007F070F82046BDE8D0
:10422000104007F06BB800BF8C02002038B54FF487
:104230001651114806F088F90224072C11D10121EA
:10424000204607F0BFFC0134082CF6D10B4800F0E3
:1042500019F90A4800F038F80848BDE8384000F07D
:1042600071B8E5B22846012107F0ACFC01212846CF
:1042700007F0C0FCE7E700BFC80C00207C0200206C
:10428000002070477047FFFF70B50025034E456062
:104290000660017242738373C57370BD541A0100C6
:1042A00070B5084C05460E46017A204600F0AFFD79
:1042B000E97B2046314300F03DF92046BDE87040DF
:1042C00000F02CB9B00200200823C3730021FFF7CF
:1042D000E7BF38B50C4641F004010546FFF7E0FFA3
:1042E000012007F011FD284604F0FB01FFF7D8FF7D
:1042F0003220BDE8384007F007BD38B504460D460A
:10430000FFF7CEFF29462046BDE83840FFF7E1BF62
:1043100070B50D4621F00F01144611430646FFF714
:10432000ECFF44EA05113046C9B2BDE87040FFF722
:10433000E4BF08B50122FFF7EBFF012008BD002212
:10434000FFF7E6BF08B50121FFF7F9FF4FF4FA6068
:10435000BDE8084007F0D8BC08B50221FFF7EFFF21
:104360004FF4FA60BDE8084007F0CEBC7FB50E4BB5
:10437000154606460C460FCB0DF1100C0CE90F004C
:10438000337BAB423CBF03F1FF35EDB204AB03EB33
:104390008505304655F8101C214461F07F01C9B2F3
:1043A000FFF7CDFF04B070BD641A010008B5817A33
:1043B00041F00402827241F00C01FFF7C0FF08BD1A
:1043C00010B5012A88BF417A027388BF41F0080105
:1043D000044688BF41722BB1012A02BF437A43F0E1
:1043E00004034372322007F093FCE17B2046FFF781
:1043F00057FF4FF47A7007F08BFC30212046FFF70F
:104400007CFF41F2941007F07FFC30212046FFF73B
:1044100074FF41F2941007F077FC30212046FFF73B
:104420006CFF962007F070FC20462021FFF765FF07
:10443000617A204641F02001FFF781FF0423A37237
:104440002046FFF7B3FF2046FFF77CFF02232046FC
:10445000E3720621FFF773FF2046BDE81040FFF727
:104460007BBFFFFF10B50446054800F011FC002398
:104470006372A27B617B2046BDE81040FFF7A0BFBE
:10448000B0020020FFF7EEBF4309012200F01F0039
:1044900002FA00F02033044A42F82300BFF34F8FA2
:1044A000BFF36F8F704700BF00E100E003681B7827
:1044B000092B0BD80A4A52F823303BB11A7F2AB194
:1044C0000279012A03D1032283F82E207047022AA1
:1044D00001D10122F8E7032AF8D10222F4E700BF54
:1044E0004C0B002003681B78022B0BD80A4A52F8A9
:1044F00023303BB11A7F2AB10279012A03D103226A
:1045000083F82E207047022A01D10122F8E7032AFE
:10451000F8D10222F4E700BF400B0020036801211C
:104520001B6B184710B403689C6B0123A4465DF80D
:10453000044B604707B5037F8DF8071063B1437FD5
:10454000C3B190F82C309BB1D0F83834FE2B07D98A
:10455000012380F82D304360002003B05DF804FB98
:10456000C2189DF8071082F833120133C0F83834AE
:104570000120F2E7D0F82831002BF9D001220DF10B
:104580000701A4309847F3E7C0F840147047C0F81B
:104590004414704790F83C34D0F83404C01A704783
:1045A00090F83C34D0F834148B4202463FBFC11817
:1045B000013391F8320382F83C3428BF4FF0FF30CA
:1045C000704790F83C34D0F8342493423ABFC01876
:1045D00090F832034FF0FF30704790F82E30022BE6
:1045E00003D090F82E30032BF7D1704738B5037FF6
:1045F0000446CBB1437F4BB3D0F81C31A3B190F943
:104600008B00FFF741FF94F98A00FFF73DFF94F913
:104610008C00FFF739FF94F98D00FFF735FFD4F8D0
:104620001C3104F13C009847A369154D102235F860
:104630003310002002F072F96369102235F833104C
:10464000002002F06BF90023237738BDD0F8303119
:10465000002BE9D090F9E500FFF716FF94F9E4008C
:10466000FFF712FF94F9E600FFF70EFF94F9E70059
:10467000FFF70AFFD4F8303104F1A400D3E700BFFC
:10468000C41B0100F8B5037F04460D46164693B1DE
:10469000437F4BB18F18BD420BD0236815F8011B27
:1046A0001B6820469847F6E7D0F828310BB1A430B4
:1046B00098473046F8BD1E46FBE7FFFF38B5037F3D
:1046C00004460D4633B1437F23B1D0F81C310BB102
:1046D0003C309847637FDBB1294BC4F880501A6A9D
:1046E00094F824305BB327490F23002284F8333039
:1046F0008D424FF0010384F8312084F8343015D115
:104700000E2384F83030FF2384F8323084F82F20D1
:10471000237F53B1D4F800313BB104F17C0104F1A3
:104720003C00984708B10023237738BD022284F863
:104730003020CC2284F8322084F82F30E8E7124B66
:104740001B68C2F302618B400E49C2F302328D42F4
:1047500023FA02F30D4AB3FBF2F303F1FF3208D060
:104760000B4B9D42D4D141F20F03238784F83720AD
:10477000CEE741F61A320133228784F83730C7E793
:1047800000E00140A08601004C0C0020006CDC021F
:10479000801A060017B4D0F8243101914BB1016999
:1047A000019A00F59A742144A43003B05DF8044BDB
:1047B0001847012003B05DF8044B70477FB543688C
:1047C000019303681A78022A46D81A783B4B53F8AB
:1047D0002240002C40D0237F002B3DD0037A012BB8
:1047E00003D1032384F82E3036E0022B1DD10123A0
:1047F00084F82E30019E04F59A753246294604F25B
:1048000032300AF00BFB0021C4F83464216184F8D3
:104810003C14FF2228460AF025FBD4F84034DBB1D3
:10482000019804B0BDE870401847032B01D1022362
:10483000D8E7042B12D184F82E302369019A13444F
:10484000FE2B2DD801212046FFF7A4FF0290029BEA
:1048500013B923690133236104B070BD052B09D15D
:1048600084F82E30D4F84434002BF5D004B0BDE8E1
:1048700070401847062B18D1042384F82E30236982
:10488000019A1344FE2B0BD801992046FFF782FFB3
:104890000390039B002BDFD1019A23691344DAE7CD
:1048A00000212046FFF776FFD6E7072B01D105232D
:1048B000D6E7082BD0D1062394E700BF400B002099
:1048C000F0B580F825309DF8143080F83D3400258F
:1048D000DF234FF47A76C0E905121E4F07600122EC
:1048E000C0E9015605610577427780F82450866259
:1048F00080F82C5080F82D50C0F80051C0F80451B9
:10490000C0F80851C0F80C51C0F81051C0F814514B
:10491000C0F81851C0F81C51C0F82051C0F82451FB
:10492000C0F82851C0F82C51C0F83051C0F83454A8
:10493000C0F8385480F88A3080F88B3080F88C309A
:1049400080F88D3080F8E43080F8E53080F8E6308B
:10495000F0BD00BF7C1A01002DE9FF414369002B27
:10496000044603DA002004B0BDE8F0818269002A21
:10497000F8DB8B42F6DA8A42F4DAD9B202226846D0
:1049800002AE09F0EBFA30460322217E09F0E6FA86
:1049900000203DF8101000258B1109B336F81520C2
:1049A000F2B183EA9217FF061AD181EA0207FF07E4
:1049B00016D403F01F0312F00100236217D1022B5B
:1049C000D0DCA3691D4D84F8240035F833101C4A4F
:1049D0001C4801F0A3FF6369194A35F8331028E039
:1049E0000135032DD9D101300328D2D1BAE7092BE3
:1049F000B8DC12F4F04FA369134F104E11484FF07A
:104A0000010584F824500CBF4FF080624FF0A06283
:104A10003A4311F4F04F36F833100CBF4FF0806872
:104A20004FF0A06801F07AFF636936F8331048EA66
:104A30000702044801F072FF012094E7C41B010043
:104A400010040107382300201000010073B5012570
:104A50000577044600F041FA01462046FFF77CFF47
:104A6000237F18402077002800F09280637F002B7E
:104A700000F0898023686B499B6A2046984794F828
:104A80002430226A002B57D0674B43F82240674BF3
:104A9000C4F80031664BC4F80431664BC4F80831E1
:104AA000654BC4F80C31654BC4F81031644BC4F845
:104AB0001431644BC4F81831634BC4F81C3104F151
:104AC0002F03C4F8A030614BC4F89830236A554ACC
:104AD00084F87C300023C4E9202394F82520C4E91D
:104AE00024339A4204F17C030CBF01220222C4F851
:104AF0009C300C2384F8882084F88930637F04F18B
:104B00007C0604F1D80500960195002B7BD094F823
:104B10002430002B72D004F07BFE6A46062105F09B
:104B200073F8237F1840D4F800312077314604F120
:104B30003C00984750BB2BE0454984F8355041F87C
:104B40002240444AC4F80021434AC4F80421434A9D
:104B5000C4F80821424AC4F80C21424AC4F8102182
:104B6000414AC4F81421414AC4F81821404AC4F803
:104B70001C2104F13502C4F8A0203E4AC4F8982054
:104B800084F83630A2E794F824301BB10023237751
:104B900002B070BD226A2E4984F8D82041F8224024
:104BA000204AC4F8DC20B4F8F820A4F8E02094F8F7
:104BB00025203149C4F82011002A3049C4F82411B5
:104BC0000CBF012202222E4984F8E22040F60C425A
:104BD000C4F82811A4F8E8202A492B4AC4F82C115B
:104BE000C4F8EC202949C4F8301104F1D80284F843
:104BF000E33084F8EA30C4E93C237FE704F008FEA0
:104C00006A4605218BE704F003FE07216A4604F09B
:104C1000FBFF237F18402077D4F82031294604F188
:104C2000A40086E7A08601004C0B002091620000E2
:104C3000A1610000B5600000C55F0000E55F0000F5
:104C4000ED5F0000F95F000011600000AD4400005E
:104C5000400B00207D74000095720000C9720000B6
:104C6000F9740000557100005D7100006971000069
:104C700045750000E5440000B96B0000C5690000FF
:104C8000FD690000316A0000BD4700003D6A000078
:104C900010B5036804465B6A984701236377204692
:104CA000BDE81040FFF7D2BE38B5036804465B6A22
:104CB0000D46984700236377A4F8F8502046BDE8D6
:104CC0003840FFF7C3BEFFF7EFBF2DE9F0471E46A0
:104CD000037F044692463BB3D0F8103163B300F132
:104CE0003C0990F8882048469847054668B9D4F8AA
:104CF000047157B19DF8243084F82E0083F001032D
:104D0000324651464846B847054607F04BF88046BC
:104D100007F048F8089BA0EB0800984204D294F8EA
:104D20002E300BB9002DF3D094F82E30012B0CBF90
:104D300030460020BDE8F0870125E6E72DE9F04781
:104D40009A46037F089F04469146002B39D0D0F83D
:104D5000103123B300F13C0890F888204046984772
:104D6000054668B9D4F8086156B19DF8243084F836
:104D70002E0083F00103524649464046B04705469F
:104D800007F010F8064607F00DF8801B874208D997
:104D900094F82E302BB9002DF5D004200FE001251A
:104DA000EEE7002DF9D194F82D3063B994F82E3048
:104DB0005BB194F82E30032B14BF00200220BDE815
:104DC000F0870620FBE70120F9E70520F7E737B574
:104DD00090F8FC5090F838340191826A009229468C
:104DE00000F233220446FFF7A9FF002384F82C3099
:104DF00003B030BD037F4BB10023012280F82D307A
:104E0000C0F8FC1080F82C20C0F838347047FFF749
:104E1000F1BF2DE9F3411646027F9DF8205004466C
:104E20000F469846002A31D0B5B10368DB6A98472F
:104E3000032D28BF0325013DEDB2FF2D236807D0C8
:104E4000E90028FA01F11B68C9B220469847F2E749
:104E50001B6B0021204698479DF82430FF2E28BF69
:104E6000FF26003318BF01230193A36A009304F2C5
:104E70003232F3B239462046FFF727FF0023C4F849
:104E8000340484F83C3402B0BDE8F0811046FAE7FF
:104E900007B5019300230093FFF7BBFF03B05DF854
:104EA00004FBFFFF13B500242346009412221321B4
:104EB0000548FFF705FD009423461B221A210348ED
:104EC000FFF7FEFC02B010BDB0020020F806002083
:104ED00008B506F003FF002008BD27207047704783
:104EE00037B5FFF7FCFF01210D2006F06BFE002116
:104EF0000D2006F07FFE68460722032109F02EF8F8
:104F0000BDF800301C4CC3F384130125684607220A
:104F10000521E55409F022F8BDF80030C3F38413ED
:104F2000684607220621E55409F018F8BDF800305C
:104F3000C3F38413684607220921E55409F00EF8EB
:104F4000BDF80030C3F38413684607220A21E554F4
:104F500009F004F8BDF80030C3F3841307220B21D5
:104F60006846E55408F0FAFFBDF80030C3F3841337
:104F7000E55403B030BD00BF520C002030B5836A49
:104F800085B004468C4601ADABB193E8070085E8D7
:104F900007006268117883F804C0E26A9A601960B9
:104FA0001846626A9047A36A1BB195E8070083E838
:104FB000070005B030BD2B46EBE700BF10B4EFF3A0
:104FC0000383103B5BB203F1C001204A204C52F82E
:104FD00021006FF3104042F8210054F82330D3E948
:104FE00006218A421BD0186940B393F820400F2C49
:104FF0000BD99968496840F82210D96901328A4270
:105000009A610CD05DF8044B7047072C19D8996849
:1050100009798154D96901328A429A61F2D15B6877
:105020000C4993F903305DF8044B5809012203F051
:105030001F0302FA03F341F8203070479868406874
:10504000DCE79C68A48820F81240D7E700600040A5
:10505000C00B002000E100E0F0B5EFF30383103B4C
:105060005BB203F1C0022F492F4C51F822006FF3BD
:10507000104041F8220054F823305868026A002A90
:1050800030D092F801C0DC695A69BCF1010F17D029
:1050900094420FD0D96841B393F820000F280AD862
:1050A0000728986895BF895C31F8121001718180DA
:1050B00001325A61F0BD986851F822104160F7E75B
:1050C00004F1FF3E724513D001690029E0D090F948
:1050D000031016484D0901F01F010CFA01F140F8C8
:1050E0002510D5E75A69DC69D2E798684160DFE7A7
:1050F00090F903E00EF1C0064FEA5E10800051F80F
:10510000267000F1604000F561400EF01F0E0CFAB1
:105110000EF56FF3104741F82670C0F88051056016
:10512000B6E700BF00600040C00B002000E100E0D7
:1051300010B4EFF30383103B5BB2324A324C03F1FD
:10514000C00152F821006FF3104042F8210054F8DA
:1051500023008268D278920706D54268527A012AE3
:1051600002D05DF8044B70475909284C01222031C8
:1051700003F01F0302FA03F344F82130BFF34F8F0B
:10518000BFF36F8F436893F90230002B2FDB59096F
:10519000203103F01F0302FA03F344F82130BFF378
:1051A0004F8FBFF36F8FD0E90114237891F902106C
:1051B0006FF386130029237014DB01F1C00C114C2E
:1051C0004B099B0001F01F018A4003F1604354F832
:1051D0002C1003F561436FF3104144F82C10C3F811
:1051E00080211A605DF8044B0121FFF7C7BE826879
:1051F0005DF8044B13786FF3861313700121FFF7EA
:10520000BDBE00BF00600040C00B002000E100E018
:1052100070B5EFF30384103C314B64B253F8246053
:10522000736893F90230002B42DB5A092D49203272
:10523000012003F01F0300FA03F341F82230BFF30B
:105240004F8FBFF36F8FD6E9012392F902101A78BE
:1052500000296FF386121A7015DB01F1C00C224D84
:105260004A09920001F01F0100FA01F102F16042C7
:1052700055F82C0002F561426FF3104045F82C0000
:10528000C2F880111160DA780021D5B21207D97006
:1052900021D4EB0712D405F01405142D16D0124BAF
:1052A000C03453F824206FF3104243F8242070BD1B
:1052B000B3681A786FF386121A70E4E70421304657
:1052C00005F01405FFF75AFE142DE8D108213046E9
:1052D000FFF754FEE3E705213046FFF74FFED8E71E
:1052E000C00B002000E100E000600040036A70B5E0
:1052F0000446987800F07B0098700D46217841B301
:105300002261E269E5601069002841D0226982B11A
:10531000A378816800688E68E16803F00303013BAD
:1053200022FA03F3002222619BB2B04780B9236ABC
:1053300021789A7842F080029A7039BB94F802C0C2
:105340000CF0030CBCF1020F1AD02A78DA7000209E
:1053500070BD94F802C0E0690CF0030E0069A2EB86
:105360000E02226105EB0E02E2600028CED19A788F
:105370000CF0030C42F08002BCF1020F9A70E4D1F1
:105380002A8842F47E420020DA8170BD002070BD80
:105390009A7842F080029A7070BD00BF036A91F85B
:1053A00001C09A7800B502F07B0E02F00B029A70F1
:1053B0000022C2608878587010461A786CF3010297
:1053C0001A70CA789A7493F807C00A780CF0A3018F
:1053D00002F05C020A43DA7183F802E05DF804FB34
:1053E00010B5D0E90721002343608B7092F90520A6
:1053F0002F49044650090123203002F01F0203FA0E
:1054000002F241F82020BFF34F8FBFF36F8FE269A4
:1054100092F90B205009203002F01F0203FA02F229
:1054200041F82020BFF34F8FBFF36F8FE26992F9ED
:1054300007205009203002F01F0203FA02F241F85F
:105440002020BFF34F8FBFF36F8FE26992F90920DD
:10545000500902F01F02934000F1200241F822306F
:10546000BFF34F8FBFF36F8FE369DA6822B19368A0
:1054700010681B6A9847E3691B691BB19A68186832
:10548000136A9847EFF31081012383F31088E369CF
:10549000084A1C78D2F800014FF00043E340034370
:1054A000C2F80031D2F8003181F31088002010BD1D
:1054B00000E100E0006F0440F0B5846A85B0054665
:1054C0000F4694466E46B4B194E80F0086E80F008C
:1054D000EB691B7884F804C02360EB6A2046C4E9BA
:1054E00002736B6A9847AC6A1CB196E80F0084E8B7
:1054F0000F0005B0F0BD3446EAE700BF8C465168A6
:1055000030B4029C0D6880B91C609CF8010038B969
:10551000E8784FF0010C0B346CF30510E8701C6058
:10552000936810681B6830BC184704F10C001860C1
:10553000EBE700BF2DE9F0470D4609780323CB4088
:1055400013F0010301F1007218BF1023037002F57C
:10555000605283785201012161F301030262A9695B
:105560006A6942620022C0E90A21C56183706B78D2
:1055700082B0044623B98378022262F30103837068
:1055800095F90B00594B95F80AC04209203200F0FA
:105590001F06012101FA06F643F82260BFF34F8F80
:1055A000BFF36F8F524A534E00F1C0074FEA0C1CF5
:1055B00052F827E06FF3104E42F827E01F185FFA09
:1055C0008CFC87F800C346F8204095F9050095F853
:1055D00004C04709203700F01F0E01FA0EFE43F801
:1055E00027E0BFF34F8FBFF36F8F00F1C00703EBCE
:1055F000000852F827E04FEA0C1C5FFA8CFC6FF3AE
:10560000104E42F827E088F800C346F8204095F98C
:10561000070095F806C04709203700F01F0E01FA71
:105620000EFE43F827E0BFF34F8FBFF36F8F00F1FB
:10563000C00703EB000852F827E04FEA0C1C5FFAA2
:105640008CFC6FF3104E42F827E088F800C346F850
:10565000204095F9090095F808C04709203700F067
:105660001F0E01FA0EF143F82710BFF34F8FBFF35F
:105670006F8F00F1C0074FEA0C1152F827C00344A6
:105680006FF3104C42F827C0C9B283F80013EA68E0
:1056900046F8204072B153681B684FF4002143F86C
:1056A000041B216A05310091E1692078FFF726FF8C
:1056B0000646B0B92A69FAB153681B684FF0006119
:1056C00043F8081B216A03310091E1692078FFF754
:1056D00015FF064680B1EB681BB19A681868136A1B
:1056E0009847304602B0BDE8F08700BF00E100E017
:1056F00000600040C00B0020EFF31080012383F313
:105700001088984B2E78D3F800214FF00041F140DB
:1057100022EA0102C3F80021D3F8003180F3108897
:10572000236AE06900229A701A715A729A72DA72C8
:105730005A83297840F20722CA40D20744BF402248
:10574000DA7406221A7722787AB1C168013A002900
:1057500000F0FE800126120391B2314341F00602AF
:105760009A829A8A92B29142FBD1EA78A978D200C1
:1057700042EA01126978032900F0D780002914BF9A
:10578000F221E221ED69D2B21A7099712A7B52009E
:1057900002F002025A736A78A97800261E7295F800
:1057A00000C0D201490101F02001D2B20A43ACF19C
:1057B0000201012940F2BD80D2B2DA716A689178A3
:1057C00059701978567866F301011970D178997477
:1057D0001278D97902F05C0201F0A3010A43DA7170
:1057E0000027C4E90377C4E9057790F905105E4EF8
:1057F00001F1C00E4A0956F82E80920067F3104856
:1058000002F1604246F82E8002F561424FF0010E2F
:1058100001F01F010EFA01F1C2F88011116090F938
:105820000B1001F1C0094A0956F829A0920002F1B3
:10583000604202F5614267F3104A01F01F0146F829
:1058400029A00EFA01F1C2F88011116090F9071039
:1058500001F1C0094A0956F829A0920002F16042FC
:1058600002F5614201F01F0167F3104A46F829A0D2
:105870000EFA01F1C2F88011116090F9091001F1DE
:10588000C0004A0956F82090920002F1604267F386
:10589000104946F8209002F561420CF0030C01F02B
:1058A0001F010EFA01F14CF0700CC2F8801111606A
:1058B00083F802C06B8923814FF6FF7843452DD0D2
:1058C000EFF310818EF31088284A13681BB928481B
:1058D000C3704023C37013680133136081F31088D1
:1058E000218924480B0A1B0153FA81F150F8213019
:1058F00023F0011323F4404343F0040340F8213024
:10590000EFF31081012383F31088136813B1136838
:10591000013B13601368B3B181F31088164B6360C9
:105920000026304602B0BDE8F08742F04002F22186
:1059300028E7BCF1020F08BF42F01002FF21D2B2EB
:105940005970DA714CE70A4A8020D370D070E3E7CF
:10595000C169097A1140090201F4706141F0010640
:10596000F9E600BF006F044000600040BC0B00205F
:10597000000D044000080440554943532DE9F04F01
:105980001E46FF23B37033786FF382038BB03370FE
:105990008023F370554B0992554A1B6A1268019196
:1059A000C3F302618A40C3F30233DA40514B0790DC
:1059B0000021100A06920891059002910093A2FB23
:1059C00003BA099B009A93426EDA9DF82030039344
:1059D0000027494B039ADD5DC5F34003C5F38005FD
:1059E00004932B43934256D1444B33F81780079BC3
:1059F00003FB08F8069BB3FBF8F2541EFF2C4AD8B1
:105A000002FB08F91DE0059BB9FBF3F37F2B03FBB9
:105A100000F040D90028B8BFFF300012A0F5C33015
:105A2000A0380028009AB8BF4042824240DC029B66
:105A3000F370337843F00403A9EB0809337054B3CF
:105A4000013C4A464FEAE9735846514608F0FEFFCA
:105A5000019A002AD7D1A0F5C333A03B002B009AAE
:105A6000B8BF5B429A4216DD0093234BB470DA5DF7
:105A70003378C2F3000161F38613049961F30413D0
:105A800065F3C30333707378C2F3C10262F3010399
:105A90007370019B029301370D2F9AD1089BF3B1CC
:105AA000009B099A93421DDC00200BB0BDE8F08FEB
:105AB0000293114B049AD95D33780090C1F3000032
:105AC00060F3861362F3041365F3C30333707378D2
:105AD000B470C1F3C10161F301037370A7E701233F
:105AE00008936EE703200BB0BDE8F08F00E00140A3
:105AF0004C0C0020A0860100FC1C01000C1D0100C4
:105B0000F0B5EFF30383103B5BB203F1C001344AFD
:105B1000344C52F821006FF3104042F8210054F841
:105B20002300C3691B6913B1036913B1F0BD036995
:105B300083B9D0E90824937803F07F03002143F070
:105B400004039370C160002CF0D0BDE8F0408022C7
:105B5000FFF7B2BC05785DB3066AF18AC1F3042190
:105B6000A9421ED28478C2681F4F04F0030E744607
:105B70000BE092F800C086F80FC001311B1B2244D5
:105B8000A942C0E903230CD25BB1BEF1020FF0D1F0
:105B9000B2F800C04CEA070C1FFA8CFCA6F80EC045
:105BA000EBE732796FF3C7123271002BBED1C0E739
:105BB000827802F003010229C1680BD0046A0D78D3
:105BC000E57002F003029B1A0A44C0E90323002B8C
:105BD000ACD1AEE70C88056A44F47E44EC81F0E772
:105BE00000600040C00B002000FEFFFF10B582B037
:105BF000EFF30383103B5BB203F1C001574A584CEB
:105C000052F821006FF3104042F8210054F823406D
:105C1000E369DB6813B1A369002B49D122894FF6F0
:105C2000FF739A4275D12278236AF2B1D98AC806E5
:105C300012D01B8AC3F308030193A369FBB9636AFB
:105C40002BB1042201992046FFF736FC22782AB1B5
:105C5000236AD98AC906E8D1BE221A7123894FF670
:105C6000FF72934231D102B010BDA17801F003015F
:105C70000229DED05B790193A369002BDFD0A278E3
:105C8000606902F0030201A909F0C8F8D4E905210E
:105C9000A37803F003031A44C91AC4E9052129B9FA
:105CA000636A1BB101222046FFF706FC2278CEE78B
:105CB000636A0021C4E90511002BD4D001222046DB
:105CC00002B0BDE81040FFF7F7BB1A0A12012549E0
:105CD00052FA83F351F8232022F0011222F44042B9
:105CE00042F0040241F82320EFF31082012383F3F2
:105CF00010881D4B196811B11968013919601B68AA
:105D00001BB91A498020CB70C87082F3108802B08A
:105D100010BDEFF31081012383F31088124B1A6832
:105D20001AB91248C2704022C2701A6801321A6051
:105D300081F3108822890B49130A1B0153FA82F25E
:105D400051F8223023F0011323F4404343F00503BC
:105D500041F82230236A227867E700BF00600040E4
:105D6000C00B002000080440BC0B0020000D0440C4
:105D700010B5EFF30384103C0B4B64B253F82400CE
:105D8000D0E90821937803F07B03937019B10222C4
:105D90000021FFF791FB054BC03453F824206FF32B
:105DA000104243F8242010BDC00B002000600040CA
:105DB00010B5EFF30384103C194B64B253F8240080
:105DC000037843B9837803F00303022B03D0036AFB
:105DD0005979C9B203E0036A198AC1F3080193F83B
:105DE00004C01CF0100F0CF0380206D093F81CC051
:105DF0001CF0010F08BF42F0400293F804C00CF001
:105E0000C70C83F804C0436A0BB1FFF755FB054B81
:105E1000C03453F824206FF3104243F8242010BDFF
:105E2000C00B00200060004030B5436A85B00446D6
:105E30008C4601ADABB193E8070085E807006268C6
:105E4000117883F804C0A26A9A6019601846226A21
:105E50009047636A1BB195E8070083E8070005B027
:105E600030BD2B46EBE700BF10B4EFF30383103BCC
:105E70005BB203F1C001144A144C52F821006FF3D5
:105E8000104042F8210054F823305A69D9698A42F7
:105E900006D2D3E90240A8B1805CE07001325A61B9
:105EA0008A4202D05DF8044B70471A69002AF9D182
:105EB0009A685DF8044B937803F07B0343F0040386
:105EC00093707047E070E9E700600040C00B00206D
:105ED00010B4EFF30383103B5BB203F1C001174A28
:105EE000174C52F821006FF3104042F8210054F88B
:105EF00023305A69D9698A4206D2D3E90240D0B127
:105F0000805CE07001325A619A698A4207D29868CF
:105F100019694079541C9C618854D3E90621914247
:105F200006D19A68937803F03B0343F0040393701F
:105F30005DF8044B7047E070E4E700BF006000408C
:105F4000C00B002010B5EFF30384103C0A4B64B281
:105F5000012153F824008268937803F003039370BF
:105F6000FFF762FFC034054B53F824206FF3104253
:105F700043F8242010BD00BFC00B0020006000408B
:105F800010B5EFF30384103C0C4B64B24FF0840C5B
:105F900053F8240083689A7802F003029A701A7901
:105FA00083F804C00421FFF73FFFC034044B53F8CB
:105FB00024206FF3104243F8242010BDC00B0020B2
:105FC0000060004002690023F0219370D17290F8C4
:105FD0002A10C269036280F8303080F82C104262C7
:105FE000184670474160027200207047C0E90E32C7
:105FF00041630020704700BFC368044A9B1AB3FA8C
:1060000083F35B090B700020704700BF4332495394
:1060100010B502690023F02193709370D17290F84B
:106020002A10026880F82C1004469169C0696062E9
:10603000236284F83030E36021B18B6808681B6A02
:106040009847226853691BB19A681868136A984781
:10605000EFF31081012383F310882368074A1C782B
:10606000D2F800014FF00043E3400343C2F800318F
:10607000D2F8003181F31088002010BD006F044079
:1060800003685969A1B190F82D3070B5044603F04A
:10609000FF0563B98A68038C96680868A1692A4677
:1060A000B047E269C4E90852012384F8333070BD77
:1060B000704700BF38B590F808C080F82E30BCF1AA
:1060C000010FC0E90612054647D090F82AC085F8AE
:1060D0002BC0002385F82D3085F82F3085F831301E
:1060E00085F8333095F82D1085F82C30C5E9082354
:1060F00011B1012385F831302A682B695269B42126
:1061000099706AB1526800211268997095F82D4013
:10611000FCB94FF0006111602321B42299729A708A
:1061200095F830201AB95122DA72002038BD0022C9
:10613000BCF1010F85F8302019D0012295F8291003
:10614000D9700CF1FF3C85F82BC085F82C2000207D
:1061500038BD116011495160DEE7436880F82AC0FC
:1061600000215B0080F8291080F82830AFE728462E
:10617000FFF786FF95F82A3095F82C20012B07D1E0
:10618000013295F828102B6995F82BC0D2B2D7E7C9
:1061900001322B6995F82BC0D2B2CFE7261D010042
:1061A00038B590F808C080F82E30BCF1010FC0E976
:1061B0000612054647D090F82AC02A620023012122
:1061C00085F82D1085F82F3085F8313085F833307B
:1061D00085F82C306B6295F82D3085F82BC00BB10B
:1061E00085F831102A682B695269B42199706AB117
:1061F000526800211268997095F82D40FCB94FF053
:10620000006111602321B42299729A7095F83020B0
:106210001AB95122DA72002038BD0022BCF1010FF8
:1062200085F830201BD0012295F82910D9700CF187
:10623000FF3C85F82BC085F82C20002038BD11606C
:1062400012495160DEE7436880F82AC05B000021F4
:1062500043F0010380F8291080F82830ADE7284684
:10626000FFF70EFF95F82A3095F82C20012B07D167
:10627000013295F828102B6995F82BC0D2B2D5E7DA
:1062800001322B6995F82BC0D2B2CDE7261D010053
:106290002DE9F0430B788A68426003F1007303F53F
:1062A00060535B01016003610A7B02720D46D1E914
:1062B00006214163296AC163002183B004468163DA
:1062C000C2B1516895F90EC00F6803C905336E4617
:1062D0004FF4002E7B60C7F800E086E80300019BC6
:1062E00083F800C0936810681B68314698470028FF
:1062F00040F0AC806B69D3B15A682768166897F98B
:106300000F7092E8030022690332B2604FF0000C74
:106310006A46C6F800C082E803001146019A177069
:106320009A68186813689847002840F0AD80EFF32A
:1063300010804FF0010C8CF31088584B2E78D3F856
:1063400000214FF00041F14022EA0102C3F8002190
:10635000D3F8003180F3108822682369516A504FC6
:106360000020F0229870DA728A7802F003021A7024
:106370000A78FA2692009E7142F020024E785E70F2
:10638000D2B2DA714A791A72CA789A740A79454E89
:10639000D20042EA0C02D2B25A7223229A72587385
:1063A00095F90F306A7BF1181201D2B281F80023FF
:1063B00003F1C00847F823403B494FEA531E51F808
:1063C00028904FEA8E0E0EF1604E0EF5614E60F38E
:1063D000104903F01F0341F828900CFA03F3CEF89C
:1063E0008031CEF8003095F9103006EB030E03F142
:1063F000C0088EF8002347F823404FEA531E4FEAA7
:106400008E0E51F828900EF1604E0EF5614E03F09D
:106410001F030CFA03F360F3104941F82890CEF8FB
:106420008031CEF8003095F90E30834211DA002029
:10643000C4E908001D4B84F82D00A06184F82E00EB
:10644000E06184F82F00E36084F8300003B0BDE819
:10645000F0831E4403F1C00586F8002347F823406B
:106460005A09920051F8256002F1604202F561423A
:1064700003F01F030CFA03F360F3104641F82560A4
:10648000C2F880311360D2E7AB69002BDED09A6886
:106490001868136A98470028D8D148E7006F04406D
:1064A000C00B002000E100E000600040433249538F
:1064B00070B5866B82B004460B466D463EB396E8D7
:1064C000030085E80300E26B3371236832605A6988
:1064D00012B194F82D10A1B19B6913B194F82D203D
:1064E00052B9636B30469847A36B1BB195E8030024
:1064F00083E8030002B070BD9A6818681369984772
:10650000EFE7936810681B6998472368E4E72E4615
:10651000D9E700BFEFF30383103B5BB2044AC033FB
:1065200052F823106FF3104142F82310704700BF58
:106530000060004070B5EFF30383103B5BB2614A2B
:10654000C03352F823106FF3104142F82310EFF3D9
:106550000383103B5C4A5BB252F823402269137BF1
:10656000C3F30000DB072CD494F82C3094F82A10E5
:10657000994216D094F82D1009B1022B41D0204633
:10658000FFF77EFD236994F82820DA7094F82B2019
:1065900094F82C30013A013384F82B2084F82C3005
:1065A00070BD94F8333003F0FF053BBB236A93BB07
:1065B00094F82E3063B352210123D17284F8303025
:1065C00070BD94F82D308BB194F8313073B9636A93
:1065D000A1695279CA54D4E9082394F82E10013ADB
:1065E0000133C4E9082379B12269E4E700200121DD
:1065F0005423206284F82F10D37270BD84F83300C6
:1066000070BD5223D37270BD23695422DA7270BDFB
:106610005423D37270BD94F82D1041B9616AA069FA
:10662000013B405C0131C4E90831D07070BD94F881
:10663000311000292ED0216884F831504869002893
:1066400038D08969002935D0E069022832D98E68AE
:10665000831E0868B668F42191709BB2A26929462E
:10666000B0472268E3695269916810688E68023BFE
:106670009BB22A462946B047E36922690220023BC1
:10668000C4E90803012184F833100023FF2093722A
:10669000D070CBE7636AA1695279CA54D4E9083251
:1066A000013B0132012BC4E90832226904D0FF20EA
:1066B000D070BBE7012BE8D12023FF209372D0706C
:1066C000B4E700BF00600040C00B002010B582B0EE
:1066D000EFF30383103B374A5BB252F823000269A1
:1066E000D37A6FF3C303D37290F82F30ABBB90F81B
:1066F0002A1003F0FF0C90F82C3099421BD1036A4A
:106700005BB990F82D1090F83040002914BF022199
:106710000321A4B3D372FFF7CBFEEFF30383103B47
:106720005BB2254AC03352F823106FF3104142F890
:10673000231002B010BDB3B9012929D090F829C0A7
:106740000021D17282F803C090F82B200133013A66
:1067500080F82B2080F82C30DFE7F023D372012162
:10676000FFF7A6FED9E790F82D4004F0FF016CB1C9
:10677000022BE5D190F829C04CF0010CE0E7F023A2
:10678000D372937803F0CF039370C4E78C46D7E7B6
:106790000190FFF775FC019890F82A30012B05D184
:1067A00090F828C0026990F82C30C9E7026990F887
:1067B0002C30C3E7C00B002000600040F0B583B070
:1067C000EFF30384103C154B64B253F82450EF6888
:1067D000BFB16A682B6992F90D20121B18BF012204
:1067E0006E46C3B193E8030086E803001A706A6935
:1067F0005A601846B8472B691BB196E8030083E836
:106800000300074BC03453F824206FF3104243F8C1
:10681000242003B0F0BD3346E8E700BFC00B0020E2
:1068200000600040EFF30383103B5BB20649074A68
:1068300051F823100120C033087252F823106FF36F
:10684000104142F823107047C00B00200060004048
:10685000C8B2012383404AB91A040B0A5B0103F151
:10686000804303F5802300209A6070479AB2F4E7D2
:1068700038B50488002C4DD043680021043303EB65
:10688000C40040F202450C4640F2034C40F2044E74
:106890000FE0624530D153F8042C02F0B852B2F147
:1068A000807F14BF41F0020144F0020408338342A8
:1068B00011D01A88AA42ECD153F8042C02F0B85235
:1068C000B2F1807F03F1080314BF41F0010144F0ED
:1068D00001048342EDD1C943CDB2012002F0B2FAE6
:1068E0000D4B93F8BB2414432C4083F8BB44012088
:1068F000BDE8384002F076BA7245D7D153F8042C7F
:1069000002F0B852B2F1807F0CBF44F0040441F0B1
:106910000401CBE7FF25E0E700E0014070B584B05B
:1069200002AB012668460C461546ADF80C100292E3
:10693000ADF800600193FFF79BFFEFF3108286F341
:1069400010881D490B681BB91C48C3704023C370D5
:106950000B6801330B6082F31088EA034FEA1423BB
:10696000E4B219D41B01164A234442F82350EFF332
:106970001082012383F310880B6813B10B68013B6D
:106980000B600B681BB90D498020CB70C87082F377
:106990001088002004B070BD04EB0310084A52F8C0
:1069A00020606FF3104642F8206025F4803642F8EC
:1069B00020601B01D7E700BFBC0B0020000D044086
:1069C00000080440034610B400209C685A614FF050
:1069D000010C83F821C083F82300C3E90312227954
:1069E000986142F010022271227960F3C302227191
:1069F0005DF8044B83F82400704700BF034610B4D1
:106A000000209C6883F8210083F82300C3E9031267
:106A10005A612279986142F010022271227960F362
:106A2000C30222715DF8044B83F82400704700BF55
:106A3000C0E90B3281620020704700BF10B4826849
:106A400003682F4C00214160D17193F90F304FEA58
:106A5000531C03F01F020CF1200C012303FA02F275
:106A600044F82C20BFF34F8FBFF36F8F026892F969
:106A70000C204FEA521C0CF1200C02F01F0203FA0A
:106A800002F244F82C20BFF34F8FBFF36F8F0268E0
:106A900092F90D204FEA521C0CF1200C02F01F025B
:106AA00003FA02F244F82C20BFF34F8FBFF36F8F2D
:106AB000026892F90E204FEA521C0CF1200C02F0F1
:106AC0001F0203FA02F244F82C20BFF34F8FBFF3EA
:106AD0006F8FEFF3108483F310880068094A007801
:106AE000C0F109008340D2F800010343C2F800312D
:106AF000D2F8003184F3108808465DF8044B7047E3
:106B000000E100E0006F044070B5C36A84B0044641
:106B10008C46164601AD9BB193E8070085E8070057
:106B200083F808C0226B1846C3E90026A26A904782
:106B3000E36A1BB195E8070083E8070004B070BD65
:106B40002B46EDE78268012370B580F820300226DD
:106B5000B323D37180F82160537904466FF30003A7
:106B60005371C2690D46FFF7CFFFA368DE705A79F3
:106B700042F001025A7194F82120012A16D094F8AB
:106B8000212002B170BD052DFCD194F82320002AEC
:106B9000F8D194F821201AB95A7A02F0F3025A7205
:106BA000BF210122D97184F8232070BD042DECD0BF
:106BB000082DE4D1E9E700BF2DE9F0430B78D1E9D6
:106BC000054203F5800303F5A6631B020026C0E916
:106BD0000B62836001608462EFF31084012383F30E
:106BE00010880A78C2F109029340774AD2F800115E
:106BF00021EA0303C2F80031D2F8003184F310888F
:106C000002688368D56980F823601F21AC78197009
:106C10005F211970DF211970917A012900F0CD8070
:106C20001689F10901F0060141F00101F6B2D972AD
:106C30009E72D17A5668C90041F00101C9B29971BA
:106C400062498E424FF00201D9700CBF6FF07F0194
:106C50000021002C00F0AC8041F07D01C9B2013C64
:106C6000597164B2697841F0E00119742978584D7E
:106C7000090101F0700141F008019970917C44EA2A
:106C80008114E4B2A0211C71D9719F21197092F96D
:106C90000F30517C4F4C0901E618C9B286F8001339
:106CA00003F1C0074C4945F8230051F827C05E099D
:106CB000B6006FF3104C06F1604641F827C006F5A8
:106CC00061464FF0010C03F01F030CFA03F3C6F802
:106CD0008031336092F90D3092F810E0E6184FEAF7
:106CE0000E1E5FFA8EFE03F1C00786F800E345F83A
:106CF00023005E0951F82780B60006F1604606F5CC
:106D000061466FF3104803F01F0341F827800CFA27
:106D100003F3C6F88031336092F90E30E71803F1BF
:106D2000C00887F800E345F823005F0951F8289070
:106D3000BF0007F1604707F561476FF3104903F0A3
:106D40001F0341F828900CFA03F3C7F880313B6029
:106D500092F90C201444530984F800E345F822000A
:106D600002F1C0049B0051F8245003F1604303F585
:106D7000614302F01F020CFA02F26FF3104541F872
:106D800024500026C3F880211A60022280F8246073
:106D9000124B80F82120C0E9056680F82260C660A9
:106DA0000661436080F82060C6613046BDE8F0832C
:106DB00041F05D01C9B2597154E71189DE72490091
:106DC000C9B2997235E700BF006F044040420F001E
:106DD000C00B002000E100E0006000405343324956
:106DE00030B583B0EFF30383103B5BB2454AC03349
:106DF00052F823106FF3104142F82310EFF303838E
:106E0000103B5BB2404A52F8234094F82230B3B9A9
:106E1000A368012284F82220DA7CD2B28DF8052002
:106E20009DF8052012F0010F5A7A14BF02F0F70204
:106E300002F0F3025A72AC22DA7103B030BD94F85A
:106E400020304BB9A3681B7A13F0080F204614BFFB
:106E500008210421FFF776FE2269A2B9A368D97C34
:106E6000C9B28DF806109DF80610197941F010018D
:106E70001971197941F008011971197962F3041136
:106E8000197103B030BDA369A1689A4209D0E268C4
:106E9000C97C581CA061D154E3690133E36103B09C
:106EA00030BD022584F821504B79E2696FF300036D
:106EB0004B7120460621FFF727FEA3682169DD708C
:106EC0005A7942F001025A7191B9DA7CD2B28DF846
:106ED00007209DF807201A7942F010021A711A79DA
:106EE00042F008021A711A7961F304121A71A4E7C8
:106EF000A269E168DB7C501CA0618B54E36901331B
:106F0000E3619AE700600040C00B002038B5EFF362
:106F10000383103B5BB2244AC03352F823106FF353
:106F2000104142F82310EFF30383103B5BB21F4A7A
:106F300052F8234094F8203093B194F8213003F0B4
:106F4000FF0263B9A369216999420ED0E269E06842
:106F5000A168C05C887401330132C4E9063238BDCF
:106F600005212046FFF7EEFDE7E723680E4993F978
:106F70000E3003F1C000002B51F8205062F3104591
:106F800041F8205009DB5A09094803F01F03012189
:106F9000603201FA03F340F82230A268D37943F05B
:106FA0004003D37138BD00BF00600040C00B00201B
:106FB00000E100E038B5EFF30383103B204A5BB2F9
:106FC00052F82340A1680B795807C3F3800217D504
:106FD000CA796FF38612C023CA7101E0013B02D067
:106FE000CA795206FAD4EFF30383103B5BB2154A19
:106FF000C03352F823106FF3104142F8231038BD0C
:10700000022584F821504B7962F300034B71E26949
:1070100007212046FFF778FDA168CD704B7943F03A
:1070200001034B7194F82130002BD1D1A369E2699F
:10703000E0680132C05C88740133C4E90632C7E7F6
:10704000C00B00200060004010B582B0EFF3038356
:10705000103B3E4A5BB252F8230083685A7A91078C
:107060004DD1D1B211F00C0F3CD0012280F8242078
:1070700090F82120012A65D0016982699142C26994
:1070800088BF02F1FF324FF0030188BFC2614FF0A9
:10709000000EA024DC7180F820E080F822E093F854
:1070A00005C06EF3000C83F805C090F82440002C56
:1070B00043D1DF241C709F241C7000240223C46170
:1070C00080F82130FFF720FDEFF30383103B5BB224
:1070D0001F4AC03352F823106FF3104142F82310B7
:1070E00002B010BDCA06EFD5DA7CD2B28DF8072007
:1070F0009DF80720DA7902F0EF02DA71E4E7002266
:10710000A02180F82420D97180F8202080F8222046
:10711000597962F30001597190F8241081B9DF2187
:107120009F2219701A7000210223C26980F8213051
:10713000C1610121FFF7E8FCC6E783F809E0BCE77D
:107140005A72F0E7C2690221A1E700BFC00B00201C
:10715000006000404160027200207047C0E90E32BA
:1071600041630020704700BFC368044A9B1AB3FA0A
:1071700083F35B090B700020704700BF43494952FD
:1071800030B5836B83B004460A466D46A3B193E8DD
:10719000030085E80300E16B1A71626B1960184601
:1071A0009047A36B1BB195E8030083E8030000231D
:1071B00084F82B3003B030BD2B46ECE730B4334BB2
:1071C00002691B6A82B003F00F2301930199019DAC
:1071D000137C90F82C4094B9C1F30321DBB2A1EBEE
:1071E00015618B409B0805D1082002B030BC704768
:1071F000013BF9D05178C909FAD1B323D3710023E7
:10720000016890F8264080F8283080F827404C6AC2
:10721000856980F82B30C56180F82D30036280F8D5
:107220002E3080F82F3080F8303023786478012BAE
:107230000CBF0523042343EA4403DBB2D370537924
:1072400043F00103537191F90F30002B09DB104912
:107250005C09012203F01F0302FA03F341F8243012
:107260000269BF23D37190F82C1001F0FF0331B1F4
:10727000002380F82C30184602B030BC7047022141
:107280001846517002B030BC704700BF00E00140AA
:1072900000E100E090F808C080F82A30BCF1010F4E
:1072A000C0E905120AD1436880F826C05B000022BD
:1072B00043F0010380F8252080F82430012380F872
:1072C0002930FFF77BBF00BF90F808C080F82A3054
:1072D000BCF1010FC0E9051208D1436880F826C04F
:1072E00000225B0080F8252080F82430002380F8FD
:1072F0002930FFF763BF00BF036902682DE9F04F33
:107300001F241C705F241C70DF241C70546A556895
:107310002279564EDFF8608142F0E0021A74E2787A
:1073200042F0E0025A74A278120102F0700242F0B8
:1073300008029A7022786478012A0CBF0522042280
:1073400042EA4402D2B2DA70494A95420CBFF722AF
:1073500077225A710027B3229F71DA7191F91120B7
:1073600091F80DC0B4184FEA0C1C5FFA8CFC84F83D
:1073700000C302F1C00548F822003E4C4FEA521EFD
:1073800054F825904FEA8E0E67F310490EF1604EC7
:1073900044F825900EF5614E012502F01F0205FA12
:1073A00002F2CEF88021CEF8002091F90F2006EBF2
:1073B000020E02F1C0098EF800C348F822004FEA1D
:1073C000521E4FEA8E0E54F829B00EF1604E0EF5A3
:1073D000614E02F01F0205FA02F267F3104B44F807
:1073E00029B0CEF88021CEF8002091F9102006EBCC
:1073F000020E02F1C0098EF800C348F822004FEADD
:10740000521E54F829B04FEA8E0E0EF1604E0EF562
:10741000614E02F01F0267F3104B44F829B005FAE1
:1074200002F2CEF88021CEF8002091F90E100E4421
:107430004A0986F800C348F8210001F1C00001F0B4
:107440001F018D4054F82010920002F1604267F352
:10745000104144F8201002F561424FF09F0AC2F833
:107460008051156083F800A0BDE8F08F00E100E0D6
:1074700040420F0000600040C00B00200A7802F577
:10748000800202F5A662120270B502618A6801608C
:1074900042600A7B0272CA69426300250A6AC263BB
:1074A00004468563EFF3108C012282F310880B7879
:1074B000C3F109039A400E4BD3F8006126EA020299
:1074C000C3F80021D3F800318CF31088FFF714FFC4
:1074D000084B84F82950C4E9075584F82A5065619F
:1074E00084F82B50A56184F82C50E360284670BDC9
:1074F000006F04404349495238B5C369044613B983
:1075000090F82C30A3B1236921680025DD71204655
:10751000FFF7F2FEA36994F826202362236984F81A
:107520002820B322E56184F82C500020DA7138BDA0
:1075300090F82B30002BE6D12369B322DA710020BA
:1075400038BD00BF38B5C36904461BB990F82C306C
:10755000002B6FD0236921680025DD712046FFF7DD
:10756000CBFE94F82620A369E56184F828202362E5
:1075700084F82C50236922680020B321D971D87176
:10758000E06092F911302E494FEA531C03F01F02BC
:107590000CF1200C012303FA02F241F82C20BFF376
:1075A0004F8FBFF36F8F226892F90E204FEA521C63
:1075B0000CF1200C02F01F0203FA02F241F82C2019
:1075C000BFF34F8FBFF36F8F226892F910204FEAFD
:1075D000521C0CF1200C02F01F0203FA02F241F8D7
:1075E0002C20BFF34F8FBFF36F8F226892F90F20CB
:1075F0004FEA521C0CF1200C02F01F0203FA02F2B7
:1076000041F82C20BFF34F8FBFF36F8FEFF310853E
:1076100083F3108821680B4A0978C1F109018B4076
:10762000D2F800110B43C2F80031D2F8003185F3D3
:10763000108838BD90F82B30002B9BD08AE700BF14
:1076400000E100E0006F044010B483B0EFF3038367
:10765000103B5BB2484AC03352F823106FF310411D
:1076600042F82310EFF30383103B444A5BB252F815
:10767000233093F82D20BAB99A69022A1A699EBF5D
:10768000117941F040011171D969012917D0D27CDB
:10769000D2B28DF8072001219DF8072083F82D1024
:1076A00003B05DF8044B7047DA69002AF8D0032A6A
:1076B0000ED0022A4ED0012A21D019690DE011798D
:1076C00041F010011171117941F008011171DEE7EB
:1076D00019690A7942F040020A711A6A5869C97C2C
:1076E0008154D3E907210131013AC3E90721002A76
:1076F000D6D119690B7962F386130B71D0E793F831
:107700002A1089B319681E4C91F90F1048092030CE
:1077100001F01F0102FA01F144F82010BFF34F8F6E
:10772000BFF36F8F1969C87940F08000C87108797C
:1077300040F01000087108794FF0040C6FF3C3009B
:10774000087181F801C048796FF30000487183F82F
:107750002C20C2E719690A7942F010020A710A79ED
:1077600042F008020A71B8E719694A7A082002F063
:10777000F7024A724870B0E700600040C00B00207A
:1077800000E100E0EFF30383103B5BB2354AC03306
:1077900052F823106FF3104142F82310EFF30383E4
:1077A000103B5BB2304A52F8232092F82730002B6E
:1077B00037D192F829309BBBD36910B4002B42D14A
:1077C0001069C1796FF3C711C023C17101E0013B9A
:1077D00002D0C179C909FAD11368224A93F910304D
:1077E00003F1C001002B52F821406FF3104442F81E
:1077F000214009DB5A091D4C03F01F0301216032AF
:1078000001FA03F344F82230C3795DF8044B43F0E6
:107810004003C3717047022909D192F8300030B992
:10782000704792F82610032992F82810F3D01069B7
:1078300092F824C080F812C00131013B82F8281070
:1078400082F827307047D2E90404116A013B645C76
:1078500084740131C2E90731002BB2D05DF8044BCA
:10786000704700BF00600040C00B002000E100E056
:1078700010B4EFF30383103B2B4A5BB252F8233072
:1078800093F829201AB193F82720012A47D0DA6902
:10789000D2B11969CA796FF38612C023CA7101E0A7
:1078A000013B02D0CA795206FAD4EFF30383103BAE
:1078B0005BB21E4AC03352F823106FF3104142F8F6
:1078C00023105DF8044B704793F82A10F9B119683A
:1078D000174C91F90F10480920304FF0010C01F0BE
:1078E0001F010CFA01F144F82010BFF34F8FBFF3D2
:1078F0006F8F1969C87940F08000C8710420487002
:10790000487962F30000487183F82CC0C2E7196916
:107910004B7A082203F0F7034B724A70BAE793F8E8
:107920003020002AB3D1B4E7C00B00200060004033
:1079300000E100E038B5EFF30383103B514A5BB23E
:10794000E02152F8234023695A7A5972D506D0B201
:1079500002F003011FD55A78520648D4E26901218A
:1079600084F82B10002A65D000252168DD7120469F
:10797000FFF7C2FC94F82610A2692369E56184F838
:107980002810226284F82C50B322DA71012120469B
:10799000FFF7F6FB12E00029E0D101071BD594F8B0
:1079A0002B20002A4FD194F82910B322002914BFAC
:1079B00002210321DA712046FFF7E2FBEFF3038394
:1079C000103B5BB2304AC03352F823106FF31041C2
:1079D00042F8231038BD94F82C20002AEED042073C
:1079E000ECD594F82B200121002AE4D1DBE7002913
:1079F000B4D15A785506C2F38011CED584F82B1035
:107A00005A7A216802F0F702486A5A7208255D70B6
:107A10000278E069012A0CBF03220222DA705A7947
:107A200042F001025A7110B994F82C2022B30025BB
:107A3000DD719CE794F82C20002A95D194F82B2036
:107A4000002AA1D090E7E2696AB1002294F82600EA
:107A5000A169E26184F82800216284F82C20B32215
:107A6000DA710121A7E794F82C20002AEDD194F8CF
:107A70002B20002AF3D0E8E794F82B20002A83D0AB
:107A8000D5E700BFC00B00200060004010B582B0F9
:107A9000EFF30384103C164B164964B253F82420CC
:107AA00050790B5C03F00303032B0FD0C03451F863
:107AB00024306FF3104341F82430936823B1D26827
:107AC000CDE900206846984702B010BD936823B105
:107AD000D268CDE9002068469847064BC03453F879
:107AE00024206FF3104243F8242002B010BD00BFE1
:107AF000C00B0020006000400346D3E902230020B1
:107B0000936070470346D3E9022300205360704717
:107B1000D0E90123D26930B4D2E9011444F0004421
:107B2000D0685C61D2E9045440F0004041F000416B
:107B30009861196100205D629C6230BC704700BF93
:107B4000002800DA704710B400F16043114C03F5CF
:107B500061430901C9B283F8001344F820200E499B
:107B600000F1C00200F01F0C400951F822408000D3
:107B700000F1604000F561406FF31044012341F8CB
:107B8000224003FA0CF3C0F880315DF8044B036027
:107B9000704700BFC00B00200060004070B58369D3
:107BA00084B004468C46164601AD9BB193E80700AD
:107BB00085E8070083F804C0E2691A609E601846F1
:107BC00062699047A3691BB195E8070083E8070045
:107BD00004B070BD2B46EDE790F800C0486EBCF1D4
:107BE000030F98BF01300AB1824227D310B4019C21
:107BF000496BE40754BF01F01F01C1F30441BCF11C
:107C0000030F09D9090981F0010172B9E9B902220A
:107C10005DF8044B5A60704701F00C01A1F10401BA
:107C2000B1FA81F14909002AF0D0824201D300293A
:107C3000EDD103225DF8044B5A607047BCF1030F8D
:107C400098BF02F1FF321A6070470028DFD0F0E7DA
:107C50002DE9F0470B7C0D46012101FA03F2C260C9
:107C6000920716BF002201740274D5E9052103F5BD
:107C7000800303F5F0631B0242610022EE69456058
:107C8000C0E9062184B004468360EFF3108001232D
:107C900083F31088854B297C0229D3F8081134BF5F
:107CA0006FF020076FF040073940C3F80811D3F890
:107CB000083180F31088A3686F684FF4254119607C
:107CC000DA62DA639A642A78297A032A4FEAC15180
:107CD00007F1FF3C00F0D58084BF41EA0241BC4679
:107CE000D6E9068ED9624FF0004119610020596132
:107CF00099614FF0FF315862039098620291C3F886
:107D00001C80C3F820E0D6F82C80C3F868C0C3F804
:107D100064C0002A40F0A0807908013902914046F1
:107D200001224FF0030C5965996500285DD095F844
:107D300000E0B76A002F71D0B97897F80390090670
:107D400041EA097197F8049041EA09419963B968D9
:107D5000C3F88C10002965D0012148B997F81C9010
:107D600097F81BA04FEA496949EA4A2948EA0908F5
:107D7000C3F8881040B996F8211096F820004907FA
:107D800041EA403148EA01084FF4AA01BEF1010F6F
:107D9000196402D10021D9641965E168D960C3F87A
:107DA0003480C3F830C01A63697C95F9120022460A
:107DB000FFF7C6FE96F8221096F924002246FFF738
:107DC000BFFE96F8231096F925002246FFF7B8FE6D
:107DD0002FB1397897F901002246FFF7B1FE344BF5
:107DE0002360002004B0BDE8F0873178F9B995F838
:107DF00000E0B17800299CD0F778BEF1020F4FEA7D
:107E0000071141EA87113FD04BD903273943B76A9D
:107E100048EA014848F08078002F8DD19F63C3F86D
:107E20008870A7E7F968003918BF012195E795F830
:107E300000E07178BEF1020F4FEA81194FEA011795
:107E400024D029D9032148EA010848EA090848EA68
:107E5000070848F48078CCE7012A19D00090194629
:107E6000EA68606802ABFFF7B7FEDDE902100204C2
:107E700042EA006242F0030CA368F06A42F0010299
:107E800051E741F480312BE70927BFE70921DAE701
:107E900040464FF0030C46E7002914BF0921062194
:107EA000D1E7002F14BF09270627AFE7006F044072
:107EB0005450470030B4436893F91220DB69002A1C
:107EC00011DB51092E4D02F01F0C2031012404FA60
:107ED0000CF445F82140BFF34F8FBFF36F8F294952
:107EE000002441F8224093F92420002A11DB510993
:107EF000234D02F01F0C2031012404FA0CF445F844
:107F00002140BFF34F8FBFF36F8F1E49002441F80C
:107F1000224093F92520002A11DB5109184D02F067
:107F20001F0C2031012404FA0CF445F82140BFF362
:107F30004F8FBFF36F8F1349002441F822409B6A93
:107F4000A3B193F90130002B10DB03F01F045A0991
:107F50000121A14020320A4C44F82210BFF34F8F78
:107F6000BFF36F8F074A002142F823108268C1686F
:107F70000023036030BC184691605363704700BF14
:107F800000E100E0C00B002030B4EFF30383103BAE
:107F90005BB2184A184C03F1C00152F821006FF38C
:107FA000104042F8210054F82300446894F800C0BF
:107FB000BCF1010F15D1D0E90254AC600024AC64CF
:107FC000EC642C6552F8215064F3104542F82150BE
:107FD0005A090A4903F01F0360320CFA03F341F80F
:107FE0002230436923B1002230BC1146FFF7D6BDD1
:107FF00030BC704700600040C00B002000E100E092
:108000001E4B10B4C3600B7803F001034370EFF311
:10801000108C012484F31088194BD3F8082122F422
:108020008012C3F80821D3F808318CF31088EFF3DD
:10803000108C84F310884278D2B9C468237962F333
:10804000861323718CF310884A684B78D278C46801
:10805000D201DB01D2B2DBB26271A3710123E37101
:108060000A780270074B43605DF8044B00207047AC
:10807000C26813796FF3C7131371E3E700E005409B
:10808000006F044000434144C3684278002023F855
:1080900012107047EFF31083012282F310884278A8
:1080A000C1683AB90A7942F040020A7183F3108834
:1080B000002070470A7942F080020A7183F3108829
:1080C00000207047EFF31081012383F3108842787A
:1080D00042B9C068037962F38613037181F3108893
:1080E00000207047C26813796FF3C713137181F3CF
:1080F00010880020704700BFEFF3108C012383F33A
:108100001088437873B9C268117963F386111171CD
:10811000117A63F3861111728CF310880023436087
:1081200018467047C3681A796FF3C7121A711A7A22
:108130006FF3C7121A72EFE7F0B5076A8BB0064605
:1081400067B3BE468C46BEE80F006C460FC4BEE85F
:108150000F000FC49EE8030084E80300BCE80F0092
:108160003D460FC5BCE80F000FC59CE803008EE834
:108170000300F36938469847336A6BB1EE469C4674
:10818000BEE80F00ACE80F00BEE80F00ACE80F003F
:108190009EE803008CE803000BB0F0BD0F46E8E753
:1081A00030B58BB0EFF30383103B5BB22E4AC03384
:1081B00052F823106FF3104142F82310EFF30383BA
:1081C000103B5BB2294A52F823500021282268460E
:1081D00006F048FE6C6894F84D380020DBB284F855
:1081E0004D08ADF80430B4F84218C1F30012C906C6
:1081F00038D543F02003ADF80430022394F8532817
:1082000084F8533894F8523803F01F03D2B2E118BF
:1082100084F8532891F8202860F3820281F82028FE
:108220002A681268009269466A6A03932846049293
:10823000FFF782FFB4F84238DB0611D52B681A69C4
:10824000127D6AB193F91530002B09DB5A090848F1
:1082500003F01F030121403201FA03F340F82230FA
:108260000BB030BD1346DBE700600040C00B0020C0
:1082700000E100E02DE9F0418AB0EFF30383103B09
:108280005BB23F4AC03352F823106FF3104142F8FB
:108290002310EFF30384103C3A4B66B2002253F8EC
:1082A0002600D0E900E595F8533885F8532895F86D
:1082B000527807F01F07DBB207F1200285F8533828
:1082C000130104F0FF0455F803C0CCF380718DF85E
:1082D0001910E958DEF810301B7B43EAD17303F024
:1082E00001038DF81830002B46D1CCF38A4305EBFF
:1082F000021205939188C1F3030301F00F010829CD
:108300008DF81A3035D908218DF81A1008AA0023E3
:1083100005EB071808EB030C01339CF806C202F8C2
:1083200001CB8B42F6D3DEF8003003972F44009345
:10833000442387F82038002307934FF48063ADF877
:1083400004306946436A0493FFF7F6FEB5F84238F5
:10835000DB070BD5002E09DB76090B4A04F01F045E
:108360000123403603FA04F442F826400AB0BDE87F
:10837000F0810029CAD1D6E72CF06043B7E700BFEF
:1083800000600040C00B002000E100E070B58AB042
:10839000EFF30383103B5BB2214AC03352F8231042
:1083A0006FF3104142F82310EFF30383103B1D4A93
:1083B0005BB2012652F823506C6894F8532884F875
:1083C000536894F85238D2B203F01F0384F853284C
:1083D0000393E2184FF40063ADF804302B681B6878
:1083E00000936B6A0493002382F82038694682F870
:1083F00020382846FFF7A0FEB4F842389B070CD57A
:108400002B6893F91730002B07DB5A09064903F054
:108410001F0340329E4041F822600AB070BD00BF89
:1084200000600040C00B002000E100E08268117A8B
:1084300001F00101137AC3F340039942FAD1436872
:108440001978012908D1C16893F810C004484B1E5F
:108450009BB240F82C101380F12313720020704758
:10846000740B00208268117A01F00101137AC3F3C2
:1084700040039942FAD1F02313720020704700BFE5
:10848000D0E90223013BF1219BB21380002011723D
:10849000704700BF8268117A01F00101137AC3F3BB
:1084A00040039942FAD143684FF0F40C002182F85E
:1084B00008C0117393F9123013F1210F03D1002377
:1084C0000360184670478B421ADB5A0910B4012129
:1084D0000F4C203203F01F0301FA03F344F822305B
:1084E000BFF34F8FBFF36F8F43680A4A93F912307F
:1084F0005DF8044B42F823000023036018467047E0
:10850000044A42F82300002303601846704700BF66
:1085100000E100E0C00B0020F0B40B7C03F140133D
:1085200003F500631B02C0E90113EFF3108501237B
:1085300083F310880C7C394AC4F10304A340D2F8B9
:10854000084124EA0303C2F80831D2F8083185F360
:108550001088826800231372137AC3F3400C9B07C0
:10856000FAD4CC6982F80AC0E37826780D7A2479A7
:1085700003F00703002E42D1002D47D114734C683D
:108580004768002696735372631E95729BB2C4604F
:108590003D7C1380224B43F8254091F91230B342C1
:1085A00022DB4A7C03F1604404F561441201D2B23B
:1085B00084F800231B4A1C4C42F8230003F1C00539
:1085C0005A0954F82570920002F1604266F3104790
:1085D00044F8257002F5614203F01F03012404FAF8
:1085E00003F3C2F880311360D1E9054100230F4A3B
:1085F0000461C0E905310260F0BC18467047502E96
:1086000006BF43F0500365463343B7E785F00205E4
:1086100043EA0513DBB23546B0E700BF006F044004
:10862000740B0020C00B0020006000405447410044
:10863000F0B585B0EFF30383103B5BB203F1C001EB
:108640001B4A1C4C52F821006FF3104042F82100E5
:1086500054F82340D4E901120978137A0129DBB2D6
:1086600004D1F42103F0F003117213722769B7B13A
:10867000656901AECDB195E8070086E807009B0665
:1086800044BF00232B71A3692B602846B847636958
:108690001BB196E8070083E80700A268137ADBB2F3
:1086A00003F00F03137205B0F0BD3546E7E700BFD6
:1086B00000600040C00B0020034600201A689B8A1F
:1086C0001380704703681B88C3F3C03300200B700E
:1086D000704700BF03681031002033F81130138059
:1086E000704700BF43682DE9F041D1E901250C68CE
:1086F0005E6903681FFA84F8A3F804801FFA82F801
:10870000A3F8148022F0405C1FFA85F824F0405E44
:1087100025F040572243A3F808804FEA1C4C3F0C39
:108720004FEA1E4812F0405FA3F80680A3F816C077
:108730005F8159D1CA68002A00F0988015892F05F9
:1087400022D5D2E900C7B2F80A80A3F89050A3F866
:108750009C80B2F80C80A3F89E801FFA8CF8A3F8D6
:108760009480CCF30B484FEA1C7CA3F8968083F8E6
:1087700092C01FFA87FCA3F898C0C7F30B4C3F0FB9
:10878000A3F89AC083F89370AF051FD40A8AA3F8A0
:108790009050A3F88020F27892B11A88BEFA8EF138
:1087A0001FFA82FE2EF01F0E0EF11F0E828AAEEB14
:1087B000010E1FFA8EFE4EEA0202A3F800E082824A
:1087C0002B4BC0E903340020BDE8F081977C92F880
:1087D00013C047EA0C0783F8A670D789128AA3F85A
:1087E000A870A3F8AA20D1E7224FD7F82080224F03
:1087F0003F68C8F3026C07FA0CFCC8F302181F4F5D
:108800002CFA08FCA7FB0C7C4FEA9C1C1C4F41F285
:10881000883808FB0CFCA7FB0C7C4FEA9C4C0CF145
:10882000010CBCF1070F38BF4FF0070C12F0805756
:108830000AD05FFA8CF715F0805F83F8DE7040F2A3
:10884000011708BF4FF48077920009D55FFA8CFCBE
:1088500047F40077AA0083F8DFC048BF47F002075B
:10886000CA68BFB25F82002A7FF468AF15468DE701
:108870004344415200E001404C0C0020D34D6210B3
:1088800083DE1B432DE9F8430B880C465B0222690B
:108890006669C968026203F1804303F5B8230022C8
:1088A000036081614460C261317962790546A078D4
:1088B0008F074FEA0223F17843EA403354BF43F075
:1088C000400343F48863002900F0DF8043F4207301
:1088D000022A08BF764A9BB208BF32F821C0AB8299
:1088E00018BF4FF0000C2279E178707896F800E01C
:1088F000D20342EA410242EA4010EFF3108801211C
:1089000081F310886B4F2288D7F80891C2F11002CA
:1089100001FA02F229EA0202C7F80821D7F8082171
:1089200088F3108847F6FF572A6880B23B401380CF
:10893000A2F810C0D08182F80CE03379980700F1DA
:10894000AD8082F88A3094F90630002B22DB227A3F
:1089500003F1604101F561411201D2B281F80023B7
:10896000554A564942F8235003F1C0005A0951F8BC
:108970002070920002F160426FF3104741F82070BE
:1089800002F5614203F01F03012101FA03F3C2F86B
:108990008031136094F90730002B22DB627A03F1F7
:1089A000604101F561411201D2B281F80023424ACF
:1089B000424942F8235003F1C0005A0951F82040BF
:1089C000920002F160426FF3104441F8204002F53A
:1089D000614203F01F03012101FA03F3C2F8803161
:1089E000136096F90630002B22DB327A03F16041E6
:1089F00001F561411201D2B281F800232E4A2F49BC
:108A000042F8235003F1C0005A0951F82040920067
:108A100002F160426FF3104441F8204002F56142D8
:108A200003F01F03012101FA03F3C2F88031136040
:108A300096F90730002B22DB727A1F4803F1604160
:108A400001F561411201D2B281F8002340F82350B0
:108A500003F1C001194A52F821006FF3104042F8A7
:108A600021005A09920002F1604202F5614203F0CE
:108A70001F03012101FA03F3C2F880311360104B88
:108A8000AB6000202861BDE8F883002A7FF420AFA6
:108A900043F400439BB2AB82944624E743F00303C4
:108AA00082F88A30084600F03DF92A68337948E7B1
:108AB000281D0100006F0440C00B00200060004032
:108AC0004344415270B40021C0E90211436893F954
:108AD00006205C698A4211DB5309364E203302F0CE
:108AE0001F0C012505FA0CF546F82350BFF34F8FF4
:108AF000BFF36F8F304B43F82210436893F9073070
:108B0000002B11DB5A092B4D03F01F0C20320121E1
:108B100001FA0CF145F82210BFF34F8FBFF36F8FAE
:108B2000254A002142F8231094F90630002B11DB6E
:108B30005A09204D03F01F0C2032012101FA0CF1DB
:108B400045F82210BFF34F8FBFF36F8F1A4A0021F1
:108B500042F8231094F90730002B10DB03F01F04B8
:108B60005A090121A1402032124C44F82210BFF3CF
:108B70004F8FBFF36F8F104A002142F82310036814
:108B800000221A821A80EFF31084012383F31088E5
:108B900040680A490088C0F110008340D1F80801FC
:108BA0000343C1F80831D1F8083184F31088104626
:108BB00070BC704700E100E0C00B0020006F044073
:108BC000064B074993F826001A6A51F820300549E8
:108BD000C2F30262D3400B60704700BF00E0014067
:108BE000480200204C0C002038B5434B434C44480D
:108BF00044494AF20355A3F8FE530022424DA0F81F
:108C0000002121604FF4004193F82600C4E901518E
:108C1000C4E90321196A626154F820203B4DC1F375
:108C20000261CA40082009212A6083F8130483F8EE
:108C3000A21093F88024002A55D02F4B002283F8ED
:108C4000812483F8802493F8A0208AB193F83620F9
:108C5000002A3FD0284A92F8A030D806C3F300116A
:108C6000F9D4254882F8A01090F8A030D906FBD49A
:108C7000214B002283F8362093F83C20D207FBD505
:108C80000121002283F8311083F82620204A1A623D
:108C900093F8262054F822001C6A194AC4F302648F
:108CA000E04028604FF0040C842083F83EC083F835
:108CB0003E004FF4254083F8D010A3F8FE03A2F83D
:108CC0000411B2F804319BB2002BFAD10123A2F8AF
:108CD000003138BD93F83C20D207BBD493F83C2038
:108CE000D207F7D5B6E7012183F8801440F2C440DB
:108CF00000F018F8A1E700BF00E0014048020020A2
:108D000000C00140006CDC0200127A004C0C002014
:108D100000010110704700BFA0F101000028FBD145
:108D2000704700BF30B5144D144A00FB01F14FF4F9
:108D30007A732868B2FBF0F2A1FB03C44FF0FF3056
:108D40004FF0000E60457EEB040407D3BCFBF2F04D
:108D5000800878B1BDE83040FFF7DEBF9200B1FB7C
:108D6000F2F1A1FB031388427EEB0303F2D3084622
:108D70000028EFD130BD00BF4C0C002000CA9A3B48
:108D80000B4B70B5B3F840510A4E0024ADB225FA32
:108D900004F3DB07E0B203D556F8243003B198475B
:108DA0000134102CF3D1024BA3F8305170BD00BF39
:108DB000006000407C0B0020084B10B4084C03F10D
:108DC000200C5842C21813F8011FC032634544F802
:108DD0002210F7D15DF8044B704700BFF026010068
:108DE00000600040EFF31081012383F31088124BE1
:108DF00033F8102092B22AB133F81020013A92B21F
:108E000023F8102033F810309BB293B90B4A10B4FA
:108E1000B2F8FE330A4C9BB234F8100043F42543F9
:108E200023EA0003A2F8FE3381F310885DF8044BB7
:108E3000704781F310887047400C002000E001402B
:108E4000341D010030B4EFF31081012383F3108847
:108E50000E4A32F810309BB26BB90D4C0D4DB4F880
:108E6000FE3335F810C09BB243EA0C0343F42543AC
:108E70009BB2A4F8FE3332F8103001339BB222F8D3
:108E8000103081F3108830BC704700BF400C0020C8
:108E900000E00140341D01000B4A08B5034610688C
:108EA00040B10333094923F0030303448B4204D840
:108EB000136008BD06481060F3E705F087FF0C2338
:108EC00003604FF0FF3008BD480C0020007B0020FD
:108ED0008023002000BE704708B500F005F8FBF7BE
:108EE000F7FFFEE7704700BF70B5464B464A47485C
:108EF0004FF47004C3F888404AF20251986001238D
:108F0000A2F8FE1382B082F81F3492F8B134DB0667
:108F1000FBD500204FF425460446A2F8FE63FFF778
:108F2000E1FFFFF761FE8DF8074001209DF8073053
:108F3000FFF788FFEFF31081012585F31088344B8C
:108F4000D3F8042122F00042C3F80421D3F804210D
:108F500081F310882F4A1168C1F300018DF80710C2
:108F60001168C1F300018DF807101268C2F3000206
:108F70008DF80720EFF3108185F31088D3F80421D2
:108F800042F00042C3F80421D3F8043181F3108881
:108F90002846FFF727FF2846FFF7A4FF1E4B1F496F
:108FA0009C801F4A1E8099601E49D9604FF48051F1
:108FB000A2F820111C481D4A9D80121A214605F076
:108FC00051FF1B481B4A1C491C4D121A05F026FF75
:108FD0001B4B5B1BA3424FEAA30605DD55F8043B80
:108FE00001349847A642F9DCFFF7EAFD0220FFF7BB
:108FF00079FFFFF7E1FE002002B0BDE87040FFF707
:1090000089BE00BF00ED00E000E00140004000002C
:10901000006F044000080440000D0040007B002069
:1090200000600040007F0020600200207C230020C0
:109030000000002048020020DC290100FC01002083
:1090400030020020064B074A1B6A1268C3F3026114
:1090500023FA00F08A4000F0070022FA00F070477F
:1090600000E001404C0C00202DE9F04782462DED38
:10907000028B00200C46FFF7E5FF07EE900AB8EEE2
:10908000678A28EE008A18EE100A05F067F906468E
:1090900020460F4605F040F904460D4602460B46B1
:1090A0003046394605F024FC50B1BCEEC88A002396
:1090B0008AED0B8A8AF83430BDEC028BBDE8F0876C
:1090C00000223A4B3046394605F0A0F980468946E1
:1090D00002460B462046294605F028FC38B140469A
:1090E000494605F043FC0223CAF82C00E2E70022BF
:1090F0002F4B3046394605F089F9804689460246AD
:109100000B462046294605F011FC38B14046494639
:1091100005F02CFC0423CAF82C00CBE70022254BD9
:109120003046394605F072F98046894602460B46BC
:109130002046294605F0FAFB38B14046494605F07D
:1091400015FC0623CAF82C00B4E700221A4B30465F
:10915000394605F05BF98046894602460B462046B3
:10916000294605F0E3FB38B14046494605F0FEFBD1
:109170000823CAF82C009DE70022104B30463946E0
:1091800005F044F906460F4602460B46204629469E
:1091900005F0CCFB38B13046394605F0E7FB0A2331
:1091A000CAF82C0086E78AF8000085E70000D03F67
:1091B0000000B03F0000903F0000703F0000503FB3
:1091C00000220270C0E9012280F83520012280F8D7
:1091D0003620DF22827770472DE9F04704464FF0B2
:1091E00000081F469DF8283080F800802173037521
:1091F000089B0361099B83610B9B03620C9BDFF857
:109200004091C0E90938FF238A4643771546002A72
:109210003ED184F83520502004F010FF4FF6FF7344
:10922000A0F8423000F12008DF2380F8205080F8B9
:10923000215080F8225080F82350C0E90955C562BA
:10924000C0E90E55C0E90C5580F8443080F845302F
:1092500080F8405080F84150C0E91255C4F8288089
:1092600020222946064605F0FDFD072FA6605AD8A4
:10927000314ABAF1020FD35D114642D099F800008D
:10928000002856D1002B4ED102232777D35548E032
:10929000012A48D184F83520242004F0CFFE8378B9
:1092A00080F8008068F3020383704378C57003F090
:1092B000F80368F306130646437080F8048080F8CC
:1092C000058080F80680A0621C224146083005F027
:1092D000C9FD012F666026D8184BBAF1020FDA5D7E
:1092E000194602D099F8000028B1012A1BD80223A0
:1092F0002777CB5515E0B2B90222DA5527772570CA
:1093000011E0012BF3D92777384601F04BFE3022CC
:10931000816A404605F082FD384601F043FE036B4A
:10932000A36101232370002389F800302078BDE871
:10933000F087012BDAE700BF520C0020500C002010
:109340005A0C0020194A70B5002316469C5C1CB9C3
:109350005BB20470184670BD0133082BF6D1144B74
:109360001C7814B15D78DDB90124012263B202706A
:10937000F0E70722B15C022953B205D00022027047
:109380000C4A01211170E5E712F1FF32F2D2022DF1
:1093900001D0012302E0022C04D000230122EEE7D9
:1093A0000029E6D14FF0FF33D4E700BF520C002074
:1093B000500C00205A0C00202DE9F84F82462DED6C
:1093C000028B14468B4631B9BDEC028B1146BDE8C9
:1093D000F84FFFF749BE012939D10820FFF732FEC7
:1093E00007EE100AB8EE478A28EE008A18EE100A37
:1093F00004F0B4FF064620460F4604F08DFF0446F5
:109400000D4602460B463046394605F071FA38B132
:10941000BCEEC88A00238AED0B8A8AF8343016E045
:1094200000221A4B3046394604F0F0FF8046894648
:1094300002460B462046294605F078FA58B14046C8
:10944000494605F093FA8AF834B0CAF82C00BDEC0E
:10945000028BBDE8F88F00224FF07F53304639462B
:1094600004F0D4FF06460F4602460B462046294626
:1094700005F05CFA38B13046394605F077FA032337
:10948000CAF82C00C9E78AF80000E0E70000E03FD6
:10949000F0B52DED028B1E460123F7EE007A9E42B9
:1094A00087B004460F461546B0EE608A037087EE1B
:1094B000800A3BD8002A39D14FF0FF31FFF7D4FDA5
:1094C000B5EEC08AF1EE10FA37DBDFED1D7AB4EEAF
:1094D000E78AF1EE10FA30D8D4ED0B7AF8EE677A1D
:1094E00067EE887A17EE900A04F038FF0022154BD9
:1094F00005F0B6F805F03AFA206323788BB10F9B9C
:1095000004930E9B039394F834300293236B0193DE
:10951000E36A00932A46334639462046FFF75CFE4D
:109520002070207807B0BDEC028BF0BD4FF6FF72C3
:1095300029462046FFF740FFC2E700232370DCE7FF
:109540000000C8420000594038B590F83530044654
:109550008BB9806808B9002038BD04F10C01FEF712
:1095600077FB0546A068FEF7D3FA0E2D01D0002D3B
:10957000F1D10120F0E7012BEDD140680028EAD0BD
:1095800004F10C010830FEF7C7FF0546606808309B
:10959000FEF776FFE9E708B590F835303BB980680B
:1095A00020B1FEF7A9FAB0FA80F0400908BD012BFE
:1095B00006D140680028F9D00830FEF753FFF2E7E3
:1095C0000020F3E708B590F835303BB9806820B14A
:1095D000FEF798FAB0FA80F0400908BD012B06D1D9
:1095E00040680028F9D00830FEF720FFF2E700209D
:1095F000F3E708B590F835303BB9806820B1FEF745
:1096000059FCB0FA80F0400908BD012B06D1406832
:109610000028F9D00830FEF73DFFF2E70020F3E71D
:1096200038B50446FFF7E5FF606838B1237F0C4A80
:1096300000252421D55404F029FD6560A56875B185
:10964000237F084AA86C0021D15410B1202104F0D6
:109650001DFD5021284604F019FD0023A36038BDEC
:10966000500C0020520C002010B50446FFF7D8FF24
:10967000204610BDF8B5002204461A4B51EC100BE1
:1096800004F0EEFF064620460F46FFF7B2FF237FA9
:1096900094F83550012B3046394617D8B5B905F046
:1096A00085F94FF0FF3100EE100A2046FFF7DCFC91
:1096B000E36A236194F8343023752046FFF744FFB2
:1096C00078B12046BDE8F840FFF77CBF05F06EF9A1
:1096D0004FF6FF7200EE100A29462046FFF76CFE97
:1096E000E6E7F8BD00408F40DFED087AC7EE807AEC
:1096F00010B5044617EE900A04F030FE41EC100B52
:109700002046BDE81040FFF7B5BF00BF00007A4417
:1097100001F10C0303608B6803B1203343604B6895
:1097200083607047836823B11868003018BF012038
:10973000704740680028FBD08068F6E7F0B585B038
:1097400004460F46014601A81546FFF7E1FF2046F3
:10975000FFF7E8FF064610B12046FFF74AFF00F08A
:1097600057F82A4601A900F01FF9054650B167775E
:109770002EB12046FFF7E8FE2046FFF723FF2846DC
:1097800005B0F0BDDF23A377F2E7FFFF0028A8BFF5
:1097900000F160404FEA0111AEBF00F5614000F0FA
:1097A0000F00034BC9B2ACBF80F8001319547047C7
:1097B00014ED00E000F1C0020A4B53F822106FF3E1
:1097C000104143F8221000F01F024009800000F110
:1097D000604000F5614001239340C0F88031036090
:1097E000704700BF006000404309012200F01F00E5
:1097F00002FA00F02033044A42F82300BFF34F8FEF
:10980000BFF36F8F704700BF00E100E07047FFFFBC
:1098100038B50A4D2B78BFF35B8F13F001040BD1E1
:10982000284604F01CFC38B1054B28461C6004F0A7
:1098300022FC044802F055FA014838BD5C0C0020B7
:10984000600C00200D9800002AB9304BC031012275
:1098500043F821207047012A03D1C0312B4B02224B
:10986000F6E7022A03D1C031284B0322F0E7032A8E
:1098700003D1C031254B0422EAE7042A03D1C031C9
:10988000224B0522E4E7052A03D1C0311F4B0622F3
:10989000DEE7062A03D1C0311C4B0722D8E7072A8E
:1098A00003D1C031194B0822D2E7082A03D1C031B5
:1098B000164B0922CCE7092A03D1C031134B0A22E7
:1098C000C6E70A2A03D1C031104B0B22C0E70B2A8E
:1098D00003D1C0310D4B0C22BAE70C2A03D1C031A1
:1098E0000A4B0D22B4E70D2A03D1C031074B0E22DB
:1098F000AEE70E2A03D1C031044B0F22A8E70F2A8E
:10990000A8D1C031014B1022A2E700BF0060004087
:1099100032B91A4BC0315D2243F821200120704733
:10992000012A05D1C031154B652043F82100F5E728
:10993000022A03D1C031114B6D22EDE7032A03D176
:10994000C0310E4B7522E7E7042A03D1C0310B4B1F
:109950007D22E1E7052A03D1C031084B8522DBE7F0
:10996000062A03D1C031054B8D22D5E7072A03D142
:10997000C031024B9522CFE70020704700600040C5
:1099800032B9C031074B1E2243F821200120704715
:10999000012A05D1C031034B212043F82100F5E70E
:1099A0000020704700600040F8B50E4601681B4B70
:1099B0001F29054617469C682CD8336893F9122056
:1099C000213201D00120F8BD7268403482B11A7C86
:1099D000FFF79EFF0028F5D03268082353742B68E8
:1099E0009374A7B90E4A44F8232001332B60EAE7A9
:1099F000B2688AB11A7CFFF7C3FF0028E2D0326850
:109A0000082353742B6893740FB9064AEBE744F8A4
:109A10002370EAE70020D6E71046D4E700ED00E027
:109A2000897F0000318600002AB9064BC0313622FA
:109A300043F821207047012AFCD1C031014B3B2261
:109A4000F6E700BF006000402AB9064BC03135225E
:109A500043F821207047012AFCD1C031014B3A2242
:109A6000F6E700BF006000402AB9064BC03137223C
:109A700043F821207047012AFCD1C031014B3C2220
:109A8000F6E700BF006000402AB9064BC03138221B
:109A900043F821207047012AFCD1C031014B3D22FF
:109AA000F6E700BF006000402AB90C4BC031992294
:109AB00043F821207047012A03D1C031074B9F2270
:109AC000F6E7022A03D1C031044BA422F0E7092AA9
:109AD000F0D1C031014BA922EAE700BF006000408D
