:10400000007F00207D98000025970000799800002F
:10401000799800007998000079980000799800005C
:10402000000000000000000000000000799800007F
:10403000799800000000000079980000799800004D
:104040000000000000000000000000000000000070
:104050000000000000000000000000000000000060
:104060000000000000000000000000000000000050
:104070000000000000000000000000000000000040
:104080000000000000000000000000000000000030
:104090000000000000000000000000000000000020
:1040A0000000000000000000000000000000000010
:1040B0000000000000000000000000000000000000
:1040C00010B5054C237833B9044B13B10448AFF352
:1040D00000800123237010BD680200200000000052
:1040E000D04B010008B5034B1BB103490348AFF3A4
:1040F000008008BD000000006C020020D04B0100D1
:104100002DE9F04104460F46012807D024B94FF6A7
:10411000FF739F4200F09280BDE8F0814FF6FF737D
:104120009942F3D1534E544D3146284608F0A8F831
:10413000DFF89481414605F10C0008F0A1F8314602
:1041400005F1180008F09CF8414605F1240008F03C
:1041500097F8314605F1300008F092F8474905F12B
:104160003C0008F08DF8314605F1480008F088F869
:10417000434905F1540008F083F8424D424928466E
:1041800008F07EF8414905F10C0008F079F8404943
:1041900005F1180008F074F83E4905F1240008F014
:1041A0006FF83D4905F1300008F06AF83B4905F128
:1041B0003C0008F065F83A4905F1480008F060F85D
:1041C000384905F1540008F05BF8DFF800814146FA
:1041D00005F1600008F054F8334E314605F16C00EB
:1041E00008F04EF8414605F1780008F049F83146EC
:1041F00005F1840008F044F826469035002E06DBD1
:104200002A49284608F03CF80C35013EF6E702231F
:1042100010222721264800F01DFC264D264928465D
:1042200008F02EF812260C35002EFFF66FAF1F494E
:10423000284608F025F80C35013EF5E71F4C1D4BCC
:104240009C4204D00C3C204607F0CCFFF7E71C4C06
:104250000C4B9C4204D00C3C204607F0C3FFF7E710
:10426000184C054B9C423FF457AF0C3C204607F0DE
:10427000B9FFF6E7BC35010084020020D435010007
:10428000E0350100E4020020E8350100F8350100C6
:1042900004360100103601002036010034360100DA
:1042A00048360100583601007C360100B83601005E
:1042B00050050020600500208436010050060020D3
:1042C0008C030020E4020020CC3501006836010098
:1042D00008B50C4B1B680C4A12689B1A83420DD31D
:1042E0000A4A137883F001031370C8B23BB101216D
:1042F00008F062FD034B1A68034B1A6008BD0021E9
:10430000F6E700BF3C0500204C050020EC0700202C
:1043100038B505460C4608F059FE0C4B18600C4B9E
:104320001B68C01AA8420DD30A4A137883F0010310
:104330001370E0B23BB1012108F03EFD034B1A6857
:10434000034B1A6038BD0021F6E700BF340500209A
:10435000440500208C03002010B50A4C00221146B1
:10436000204600F0E9FB0849204607F0BDFE012287
:104370000021204600F0E0FB0449204607F0B4FE8F
:1043800010BD00BF500500208C3601009C36010096
:1043900010B5094C204600F0BAFB0849204607F04A
:1043A000A3FE01220021204600F0C6FB044920465E
:1043B00007F09AFE10BD00BF50050020AC3601008A
:1043C000BC3601002DE9F84F06460F469046994647
:1043D0000C9DDDF834B0DDF838A00024AC420FDAD3
:1043E00063001A1991000A4659442048104407F006
:1043F00059FF3AF824201E4B43F824200134EDE7FE
:104400000023B34216DA37F823101A4A42F8231071
:1044100038F82310184A42F8231039F82310174AA5
:1044200042F823100A9A32F82310154A42F8231052
:104430000133E6E7134B1E60134B01221A70134B36
:104440001A68134B1A600B9A124B1A60124B1D60BC
:104450000023124A1360124A1360124A1360124A70
:104460001360124A1360BDE8F88F00BF600500209A
:1044700058060020C8080020F0070020680400202B
:104480009003002098090020940900204005002096
:104490004805002090090020500600205406002006
:1044A000C408002064040020E8070020380500202C
:1044B00008B54FF6FF710120FFF722FE08BD08B5D1
:1044C0004FF6FF710020FFF71BFE08BD38B54FF413
:1044D0001651104806F010FF022400E00134082CA9
:1044E0000BDCE5B20121284608F03CFC062CF5DC8B
:1044F0000121284608F060FCF0E7074C204600F058
:10450000A9FB204600F0C8FA204600F000FBFFF7A8
:1045100023FF38BDB81300205005002030B58DB002
:1045200008F040FDA74B1860A74807F033F90028B2
:104530004EDCA64B1B78002B00F03E82A14B1B6883
:10454000A34A12689B1AA34A1268934206D3A24B4D
:104550001A68A24B1B689A42C0F2C880A04B1A6826
:10456000A04B1B689A4280F231829F4B1B78002B34
:1045700040F0F0819D4B1868B0F1FF3F40F01D8185
:10458000974B1A689A4B53F82230B3F5DC7F00F052
:10459000158240F3638140F20B22934200F0918137
:1045A000B3F5037FC0F27D8140F29322934200F085
:1045B000708140F2BA22934200F0008240F24B2216
:1045C000934200F05681894B4FF0FF321A607FE131
:1045D0000A227D4906A807F0EBFD06A807F0F2FEC7
:1045E000844B1B78002B2CD0834906A807F0CEFE05
:1045F00038BB089B0A2B4DD8804909A807F040FE1C
:1046000006A909A807F0AAFE7D4907F0B4FE7D4C73
:10461000014604F13C0007F045FE09A807F0E2FD61
:10462000794B049303940823029340F2DC530193E3
:10463000764B0093764B774A77491920FFF7C2FEF5
:1046400020E0764906A807F0A1FE10B1744B1B7854
:104650007BB3744906A807F099FE10B1704B1B7824
:104660007BB3714C204600F052FA7049204607F0A7
:104670003BFD4FF47A7008F09BFC204600F047FAAF
:10468000FFF76AFE5C4906A807F01BFE06A807F0C4
:10469000A9FD4EE7644C204600F039FA64492046F3
:1046A00007F022FD4FF47A7008F082FCFFF770FEED
:1046B000E8E701234F4A1370594A1370FFF768FE69
:1046C000E0E75C4B04935C4B03930E23029340F6AC
:1046D000C4130193594B0093594B5A4A5A492E20FF
:1046E000FFF770FE4E4B01221A70CBE74E4800F0E8
:1046F0000EFA564B1B68012B18D0002B2BD0544BB5
:104700001A68364B1B689A4202DB514B00221A6032
:104710004F4A1368591C11604E4A52F823202D4B02
:104720001A60284B1A682A4B1A6017E73E4C012280
:104730000021204600F000FA274B1B6803EB4303DF
:104740009A0045491144204607F0C7FC3F4A1368C8
:10475000013B1360D3E7344C00221146204600F0A1
:10476000EBF91D4D2B6803EB43039A003A491144C2
:10477000204607F0B2FC01220021204600F0DCF9BF
:10478000164B1A68013A2B689A4211D0013303EB99
:1047900043039A0030491144234807F09EFC2B4AFA
:1047A0001368013313600C4A136801331360A6E7E2
:1047B0002949204607F091FCF1E70121C0B208F039
:1047C000FBFADDE640050020B81300209409002024
:1047D0004805002038050020E8070020500600208A
:1047E000C408002098090020BC0800200000002018
:1047F000C808002030050020B8360100A43B0100A5
:10480000AC3B010084020020B83A0100543A010098
:10481000F03901008C39010028390100903B01007A
:1048200031050020B03B010050050020B43B0100E1
:10483000943B0100F0380100E40200203838010008
:10484000C836010080370100D83A0100040000207A
:10485000540600205806002060050020B3F5A57F0F
:1048600017D00EDCB3F5837F2BD0B3F5937F7FF4A5
:10487000AAAE0021052008F09FFA5B4B05221A60C2
:1048800026E040F25D12934213D0B3F5C47F7FF46B
:104890009AAE0021032008F08FFA534B03221A60CE
:1048A00016E0B3F5E97F00F08980B3F5F77F7FF478
:1048B0008AAE0021042008F07FFA4B4B04221A60D4
:1048C00006E00021062008F077FA474B06221A601E
:1048D000464D2968464B53F821305B00454A92FB10
:1048E000F3F345480360454B53F821305B0092FBDE
:1048F000F3F2434B1A6008F069FB424B186008F072
:1049000065FB414B18600024404B1C70404B1C70F1
:104910002146072008F050FA2146082008F04CFAFA
:104920003C4B196828683C4B33F8203091FBF3F37B
:104930003A4A126813443A4C23600123394C2370DD
:10494000394C34F8200091FBF0F10A4437490A60F1
:10495000374A137008F03AFB364B18600721264B94
:104960001868FFF7B5FC0821254B1868FFF7D0FC45
:104970002A4B1A682A4B1B689A421DD31A4B186897
:10498000B0F1FF3F03D00121C0B208F015FA0021B9
:10499000072008F011FA0021082008F00DFA134A48
:1049A000136801331360244A136801331360002332
:1049B0001C4A13701E4A13700DB030BD0021022036
:1049C00008F0FAF9084B02221A6081E71B4800F050
:1049D0009EF800241A4B1C70FFF7BEFC194B1C708C
:1049E000194B1C70E8E700BF00000020C40800203D
:1049F000C808002040420F00B808002068040020CA
:104A0000580400204C05002044050020EC0700203D
:104A10008C03002090090020F007002040050020B2
:104A2000C0080020BC080020900300206004002083
:104A30005C0400203C050020640400205005002098
:104A40009409002031050020300500200020704727
:104A50007047FFFF70B400254560044E0660017288
:104A600042738373C57370BC704700BFCC3B0100B9
:104A700070B505460E46074C017A204600F0B7FE99
:104A8000E97B23681B68314320469847204600F0A5
:104A900057F970BD9C09002008B50823C373002195
:104AA000FFF7E6FF08BD38B505460C4641F00401A6
:104AB000FFF7DEFF012008F039FA04F0FB01284679
:104AC000FFF7D6FF322008F031FA38BD38B504467A
:104AD0000D46FFF7CDFF29462046FFF7E4FF38BD1E
:104AE00070B50646154601F0F0030C01E4B243EA46
:104AF0000201FFF7EBFF44EA05013046FFF7E6FF4E
:104B000070BD08B50122FFF7EBFF012008BD08B515
:104B100000220121FFF7E4FF4FF4FA6008F006FAE3
:104B200008BD08B500220221FFF7DAFF4FF4FA6052
:104B300008F0FCF908BDFFFF70B584B006460C46CE
:104B400015460D4B0FCB0DF1100C0CE90F00337B0C
:104B5000AB4201D25D1EEDB204AB03EB850555F807
:104B6000101C214449B261F07F010022C9B23046D5
:104B7000FFF7B6FF04B070BDDC3B010008B5817AD9
:104B800041F004018172002241F00801FFF7A8FF03
:104B900008BD10B50446012A03D9417A41F0080145
:104BA000417222730BB1012A3FD0322008F000FA83
:104BB000E17B2046FFF75CFF4FF47A7008F0F8F9CC
:104BC00030212046FFF782FF41F2941008F0AEF941
:104BD00030212046FFF77AFF41F2941008F0A6F941
:104BE00030212046FFF772FF962008F09FF9202120
:104BF0002046FFF76BFF617A002241F0200120463A
:104C0000FFF76EFF0423A3722046FFF7B7FF20468D
:104C1000FFF77DFF0223E372002206212046FFF703
:104C20005FFF2046FFF77DFF10BD637A43F004036A
:104C30006372BAE710B50446054800F015FD00237D
:104C40006372A27B617B2046FFF7A3FF10BD00BF0C
:104C50009C09002008B5FFF7EDFF08BD38B50446F4
:104C60000D46037F33B1437F23B1D0F81C310BB124
:104C70003C309847637F43B3C4F880502B4B1A6A8B
:104C8000C2F30261C2F30232294B1B688B40D3404E
:104C9000284AA2FB03239B0D013B94F8242062B316
:104CA000002384F831300F2384F83330012384F853
:104CB0003430214B9D4216D10E2384F83030FF232F
:104CC00084F83230002384F82F30237F53B1D4F896
:104CD00000313BB104F17C0104F13C00984708B17C
:104CE0000023237738BD022384F83030CC2384F8A6
:104CF0003230012384F82F30E7E70F4A95420BD07A
:104D00000E4A9542E1D1102284F839200F2284F80E
:104D1000382084F83730D8E71B2284F839201A224B
:104D200084F83820023384F83730CEE700E00140C1
:104D300038130020819F5E16A0860100801A0600AD
:104D400008B503681B6B0121984708BD10B50368BF
:104D50009C6B0123A04710BD00B583B08DF80710F0
:104D6000037F13B3437FB3B190F82C300BB3D0F86B
:104D70003834FE2B05D9012380F82D304360002004
:104D800014E0C2189DF8071082F833120133C0F8FE
:104D9000383401200AE0D0F8283163B101220DF146
:104DA0000701A4309847012000E0002003B05DF81F
:104DB00004FB0120FAE70120F8E7F8B5037FABB167
:104DC00015460F460446437F4BB10026AE420FD234
:104DD00023681B68B95D204698470136F6E7D0F88E
:104DE00028313BB1A4309847284600E00020F8BDA8
:104DF0002846FCE71046FAE7C0F840147047C0F8B0
:104E000044147047D0F8342490F83C04101A7047CA
:104E1000024690F83C34D0F834148B4206D2C118C4
:104E200091F83203013382F83C3470474FF0FF3081
:104E3000704790F83C34D0F83424934203D218449D
:104E400090F8320370474FF0FF30704790F82E30E3
:104E5000DBB2022B04D090F82E30DBB2032BF5D15D
:104E60007047FFFF38B50446037F002B00F08780B2
:104E7000437F002B42D0D0F81C31002B7FD090F91B
:104E80008B3003F01F005B09012202FA00F0454954
:104E9000203341F82300BFF34F8FBFF36F8F94F996
:104EA0008A3003F01F005B0902FA00F0203341F85A
:104EB0002300BFF34F8FBFF36F8F94F98C3003F053
:104EC0001F005B0902FA00F0203341F82300BFF312
:104ED0004F8FBFF36F8F94F98D3003F01F005B0984
:104EE0008240203341F82320BFF34F8FBFF36F8FF1
:104EF000D4F81C3104F13C00984740E0D0F8303140
:104F0000EBB390F9E53003F01F005B09012202FAD0
:104F100000F02449203341F82300BFF34F8FBFF343
:104F20006F8F94F9E43003F01F005B0902FA00F080
:104F3000203341F82300BFF34F8FBFF36F8F94F9F5
:104F4000E63003F01F005B0902FA00F0203341F85D
:104F50002300BFF34F8FBFF36F8F94F9E73003F057
:104F60001F005B098240203341F82320BFF34F8F9D
:104F7000BFF36F8FD4F8303104F1A4009847A369D0
:104F8000094D102235F83310002002F0ADF96369A5
:104F9000102235F83310002002F0A6F90023237701
:104FA00038BD00BF00E100E0603D010080F82E1038
:104FB0007047FFFF08B503681B78092B0CD80E4A11
:104FC00052F8233043B11A7F32B10279012A04D05A
:104FD000022A07D0032A0AD008BD03211846FFF78A
:104FE000E5FFF9E701211846FFF7E0FFF4E70221AA
:104FF0001846FFF7DBFFEFE73812002008B503681B
:105000001B78022B0CD80E4A52F8233043B11A7F7A
:1050100032B10279012A04D0022A07D0032A0AD029
:1050200008BD03211846FFF7C1FFF9E70121184623
:10503000FFF7BCFFF4E702211846FFF7B7FFEFE7E1
:105040002C12002070B584B0436803930268137873
:10505000DBB2022B21D81278584B53F82240E4B12E
:10506000237FD3B1037A012B13D0022B17D0032B4C
:1050700033D0042B36D0052B5FD0062B67D0072BFF
:1050800000F09180082B08D106212046FFF78EFF03
:1050900003E003212046FFF789FF04B070BD012122
:1050A0002046FFF783FF039E04F59A753246294692
:1050B00004F232300BF074FCC4F834640021216136
:1050C00084F83C14FF2228460BF08EFCD4F84034C0
:1050D000002BE2D003989847DFE702212046FFF734
:1050E00065FFDAE704212046FFF760FF2369039A92
:1050F0001344FE2B14D8D4F824517DB1216904F552
:105100009A730122194404F1A400A8470190019B5D
:10511000002BC2D1236901332361BEE70120F5E7EB
:10512000D4F82431002BB8D0216904F59A700022FC
:10513000014404F1A4009847AFE705212046FFF79A
:1051400035FFD4F84434002BA7D09847A5E70421B5
:105150002046FFF72BFF2369039A1344FE2B15D833
:10516000039AD4F824517DB1216904F59A73194446
:1051700004F1A400A8470290029B002B8DD1039A52
:1051800023691344236188E70120F4E7D4F824312C
:10519000002B82D0216904F59A700022014404F1A9
:1051A000A400984779E705212046FFF7FFFED4F8D1
:1051B0004434002B3FF471AF98476EE72C12002067
:1051C000F0B4002545604FF47A768660214F076081
:1051D00005614161826105770122427780F82450A0
:1051E00080F82530866280F82C5080F82D50C0F869
:1051F0000051C0F80451C0F80851C0F80C51C0F873
:105200001051C0F81451C0F81851C0F81C51C0F822
:105210002051C0F82451C0F82851C0F82C51C0F8D2
:105220003051C0F83454C0F838549DF8103080F82C
:105230003D34DF2380F88A3080F88B3080F88C3062
:1052400080F88D3080F8E43080F8E53080F8E63082
:10525000F0BC7047F43B0100012800D070474FF6C6
:10526000FF739942FAD110B582B00024009423460E
:10527000122213210548FFF7A3FF009423461B22A7
:105280001A210348FFF79CFF02B010BD9C090020C3
:10529000E40D00204369002BC0F291808269002A4E
:1052A000C0F28F808B4280F28E808A4201DB002028
:1052B0007047F0B585B004460222D9B202A80AF0C0
:1052C000AFFB0322217E68460AF0AAFB002220E001
:1052D0000133022B1CD804A901EB420131F8081C50
:1052E0000029F5D004A800EB430030F8100C00288A
:1052F000EED08D1185EAA01616F01F0FE8D181EAD5
:10530000000616F0010FE3D105F01F05256206E047
:105310000132022A01D80023DBE7002001460028E1
:1053200053D0002954D010F0010F2DD0236A092B3F
:1053300050DC012384F8243010F4F04F1ED14FF0DC
:10534000806211F4F04F1CD04FF0A067A369224E89
:10535000224D42F4803242F0100236F833102846D3
:1053600001F0C2FF636947F4803242F0100236F860
:105370003310284601F0B8FF012027E04FF0A0626B
:10538000DFE74FF08067E1E7236A022B01DD0020B1
:105390001CE0002384F82430A3690F4E104F0F4DFA
:1053A0003A4636F83310284601F09EFF63693A46C4
:1053B00036F83310284601F097FF012006E0002060
:1053C00070470020704700207047002005B0F0BDF6
:1053D0000020FBE70020F9E7603D01002C2A0020B7
:1053E0001004010770B582B004460123037700F072
:1053F0005AFA01462046FFF74DFF237F18402077D9
:10540000002800F0D880637F3BB994F82430002B4B
:1054100000F0998000232377CFE023689B6A7749C7
:105420002046984794F82430002B60D0226A744BB1
:1054300043F82240734BC4F80031734BC4F8043175
:10544000724BC4F80831724BC4F80C31714BC4F87C
:105450001031714BC4F81431704BC4F81831704BD3
:10546000C4F81C3104F12F03C4F8A0306D4BC4F80C
:105470009830236A84F87C30604BC4F88030002375
:10548000C4F8843094F82530002B5AD1012384F8D5
:1054900088300023C4F89030C4F8943004F17C03C1
:1054A000C4F89C300C2384F8893004F17C05009505
:1054B00004F1D8060196637F002B00F08A8094F8EF
:1054C0002430002B7BD004F04BFC6A46062104F00C
:1054D000DFFE237F18402077D4F80031294604F1FD
:1054E0003C009847002868D00023237765E0226AB3
:1054F0004D4B43F822404D4BC4F800314C4BC4F89F
:1055000004314C4BC4F808314B4BC4F80C314B4BB5
:10551000C4F810314A4BC4F814314A4BC4F818315E
:10552000494BC4F81C3104F13503C4F8A030474B93
:10553000C4F89830012384F83530002384F83630DD
:1055400097E70223A3E7236A374A42F82340404AF9
:10555000C4F820213F4AC4F824213F4AC4F8282136
:105560003E4AC4F82C213E4AC4F8302184F8D83091
:10557000224BC4F8DC30B4F8F830A4F8E03094F8EA
:105580002530B3B9012384F8E230002384F8E330F6
:105590000C2284F8E82084F8E92084F8EA30314AC3
:1055A000C4F8EC2004F1D802C4F8F020C4F8F430B8
:1055B0007BE70223E7E70023237702B070BD04F006
:1055C000CFFB6A46052104F063FE237F1840207755
:1055D00082E704F0C5FB6A46072104F059FE237FE9
:1055E00018402077D4F82031314604F1A4009847C0
:1055F0000028E2D000232377DFE700BFA086010068
:10560000381200205D6C00006D6B0000816A0000A4
:1056100091690000B1690000B9690000C569000026
:10562000DD690000B54F00002C120020497E00000B
:10563000617C0000957C0000C57E0000217B00009D
:10564000297B0000357B0000117F0000FD4F00002A
:105650008575000091730000C9730000FD730000A0
:10566000097400004550000010B5044603685B6AE9
:105670009847012363772046FFF7B4FE10BD38B585
:1056800004460D4603685B6A984700236377A4F8D5
:10569000F8502046FFF7A6FE38BD08B5FFF7EFFF2C
:1056A00008BD2DE9F04704469A46089D037F3BB3A9
:1056B0009046D0F810315BB300F13C0990F8882097
:1056C00048469847074670B9D4F804615EB1002394
:1056D00084F82E309DF8243083F001035246414671
:1056E0004846B047074607F071FC064607F06EFCD7
:1056F000801BA84204D294F82E300BB9002FF5D0AD
:1057000094F82E30DBB2012B04D00020BDE8F087E6
:105710000127E8E75046F9E72DE9F047089E047FA6
:10572000CCB3984692460446D0F810318BB300F1C2
:105730003C0990F8882048469847054670B9D4F847
:1057400008715FB1002384F82E309DF8243083F077
:105750000103424651464846B847054607F036FC25
:10576000074607F033FCC01BB04204D294F82E3039
:105770000BB9002DF5D08DB994F82D3083B994F87C
:105780002E307BB194F82E30DBB2032B0CD00020EE
:1057900002E00125E2E70620BDE8F0870420FBE7F0
:1057A0000120F9E70520F7E70220F5E730B583B0DF
:1057B000044690F8FC5090F83834826A01910092C7
:1057C00000F233222946FFF7A7FF002384F82C308C
:1057D00003B030BD037F4BB1002380F82D30C0F8FB
:1057E000FC10012280F82C20C0F83834704708B52E
:1057F000FFF7F0FF08BD2DE9F04383B098469DF810
:105800002860037F002B36D0044689461746CEB960
:10581000FF2F00D9FF27A26A9DF82C30003318BF54
:10582000012301930092FBB204F232324946204632
:10583000FFF737FFC4F83404002384F83C3403B086
:10584000BDE8F0830368DB6A9847032E00D903267E
:10585000751EEDB24EB123681B68E90028FA01F10C
:10586000C9B2204698472E46F2E723681B6B0021F9
:1058700020469847CCE70020E1E700B583B00193CC
:1058800000230093FFF7B7FF03B05DF804FB08B5F2
:105890004FF6FF710120FFF7DFFC08BD08B507F0E8
:1058A00013FB002008BD27207047704730B58DB02E
:1058B000FFF7FBFF01210D2007F054FA00210D2016
:1058C00007F07AFA0722032168460AF0A9F8BDF822
:1058D0000030C3F384131B4C0125E5540722052136
:1058E00002A80AF09DF8BDF80830C3F38413E5540C
:1058F0000722062104A80AF093F8BDF81030C3F37C
:105900008413E5540722092106A80AF089F8BDF896
:105910001830C3F38413E55407220A2108A80AF0BB
:105920007FF8BDF82030C3F38413E55407220B2120
:105930000AA80AF075F8BDF82830C3F38413E554BB
:105940000DB030BD4013002030B5836A85B00446E9
:105950008C4601ADABB193E8070085E807006268AB
:10596000117883F804C0E26A9A6019601846626A86
:105970009047A36A1BB195E8070083E8070005B0CC
:1059800030BD2B46EBE700BF10B4EFF30383103BB1
:105990005BB203F1C001204A204C52F821006FF3A2
:1059A000104042F8210054F82330D3E906218A42FE
:1059B0001BD0186940B393F820400F2C0BD999687D
:1059C000496840F82210D96901328A429A610CD0A4
:1059D0005DF8044B7047072C19D8996809798154F0
:1059E000D96901328A429A61F2D15B680C4993F914
:1059F00003305DF8044B5809012203F01F0302FA3B
:105A000003F341F82030704798684068DCE79C68F1
:105A1000A48820F81240D7E700600040AC120020B4
:105A200000E100E0F0B5EFF30383103B5BB203F15C
:105A3000C0022F492F4C51F822006FF3104041F85B
:105A4000220054F823305868026A002A30D092F8B5
:105A500001C0DC695A69BCF1010F17D094420FD024
:105A6000D96841B393F820000F280AD8072898680E
:105A700095BF895C31F812100171818001325A6141
:105A8000F0BD986851F822104160F7E704F1FF3E3D
:105A9000724513D001690029E0D090F9031016482F
:105AA0004D0901F01F010CFA01F140F82510D5E76E
:105AB0005A69DC69D2E798684160DFE790F903E052
:105AC0000EF1C0064FEA5E10800051F8267000F11A
:105AD000604000F561400EF01F0E0CFA0EF56FF3FA
:105AE000104741F82670C0F880510560B6E700BF46
:105AF00000600040AC12002000E100E010B4EFF3C1
:105B00000383103B5BB2324A324C03F1C00152F8BE
:105B100021006FF3104042F8210054F823008268FE
:105B2000D278920706D54268527A012A02D05DF8EF
:105B3000044B70475909284C0122203103F01F0300
:105B400002FA03F344F82130BFF34F8FBFF36F8F96
:105B5000436893F90230002B2FDB5909203103F001
:105B60001F0302FA03F344F82130BFF34F8FBFF352
:105B70006F8FD0E90114237891F902106FF3861327
:105B80000029237014DB01F1C00C114C4B099B0060
:105B900001F01F018A4003F1604354F82C1003F513
:105BA00061436FF3104144F82C10C3F880211A6050
:105BB0005DF8044B0121FFF7C7BE82685DF8044B16
:105BC00013786FF3861313700121FFF7BDBE00BF7A
:105BD00000600040AC12002000E100E070B5EFF37F
:105BE0000384103C314B64B253F82460736893F91A
:105BF0000230002B42DB5A092D492032012003F0EC
:105C00001F0300FA03F341F82230BFF34F8FBFF3B5
:105C10006F8FD6E9012392F902101A7800296FF3E9
:105C200086121A7015DB01F1C00C224D4A09920050
:105C300001F01F0100FA01F102F1604255F82C0059
:105C400002F561426FF3104045F82C00C2F8801154
:105C50001160DA780021D5B21207D97021D4EB0790
:105C600012D405F01405142D16D0124BC03453F87D
:105C700024206FF3104243F8242070BDB3681A78D3
:105C80006FF386121A70E4E70421304605F014051C
:105C9000FFF75AFE142DE8D108213046FFF754FED5
:105CA000E3E705213046FFF74FFED8E7AC120020AE
:105CB00000E100E000600040036A70B50446987897
:105CC00000F07B0098700D46217841B32261E269B3
:105CD000E5601069002841D0226982B1A37881680B
:105CE00000688E68E16803F00303013B22FA03F3C6
:105CF000002222619BB2B04780B9236A21789A784A
:105D000042F080029A7039BB94F802C00CF0030C88
:105D1000BCF1020F1AD02A78DA70002070BD94F816
:105D200002C0E0690CF0030E0069A2EB0E022261D2
:105D300005EB0E02E2600028CED19A780CF0030C3D
:105D400042F08002BCF1020F9A70E4D12A8842F43A
:105D50007E420020DA8170BD002070BD9A7842F04A
:105D600080029A7070BD00BF036A91F801C09A78F2
:105D700000B502F07B0E02F00B029A700022C260A6
:105D80008878587010461A786CF301021A70CA7835
:105D90009A7493F807C00A780CF0A30102F05C0231
:105DA0000A43DA7183F802E05DF804FB10B5D0E92C
:105DB0000721002343608B7092F905202F49044688
:105DC00050090123203002F01F0203FA02F241F8C9
:105DD0002020BFF34F8FBFF36F8FE26992F90B2042
:105DE0005009203002F01F0203FA02F241F820208D
:105DF000BFF34F8FBFF36F8FE26992F9072050090D
:105E0000203002F01F0203FA02F241F82020BFF313
:105E10004F8FBFF36F8FE26992F90920500902F0AA
:105E20001F02934000F1200241F82230BFF34F8F50
:105E3000BFF36F8FE369DA6822B1936810681B6A59
:105E40009847E3691B691BB19A681868136A9847F9
:105E5000EFF31081012383F31088E369084A1C786B
:105E6000D2F800014FF00043E3400343C2F8003191
:105E7000D2F8003181F31088002010BD00E100E06D
:105E8000006F0440F0B5846A85B005460F4694461D
:105E90006E46B4B194E80F0086E80F00EB691B78FA
:105EA00084F804C02360EB6A2046C4E902736B6A7D
:105EB0009847AC6A1CB196E80F0084E80F0005B063
:105EC000F0BD3446EAE700BF8C46516830B4029C0E
:105ED0000D6880B91C609CF8010038B9E8784FF073
:105EE000010C0B346CF30510E8701C6093681068AB
:105EF0001B6830BC184704F10C001860EBE700BFCA
:105F00002DE9F0470D4609780323CB4013F0010338
:105F100001F1007218BF1023037002F560528378FC
:105F20005201012161F301030262A9696A694262B7
:105F30000022C0E90A21C56183706B7882B00446F3
:105F400023B98378022262F30103837095F90B0071
:105F5000594B95F80AC04209203200F01F06012172
:105F600001FA06F643F82260BFF34F8FBFF36F8F3D
:105F7000524A534E00F1C0074FEA0C1C52F827E07A
:105F80006FF3104E42F827E01F185FFA8CFC87F879
:105F900000C346F8204095F9050095F804C047096C
:105FA000203700F01F0E01FA0EFE43F827E0BFF382
:105FB0004F8FBFF36F8F00F1C00703EB000852F85B
:105FC00027E04FEA0C1C5FFA8CFC6FF3104E42F88E
:105FD00027E088F800C346F8204095F9070095F8B7
:105FE00006C04709203700F01F0E01FA0EFE43F8E5
:105FF00027E0BFF34F8FBFF36F8F00F1C00703EBB4
:10600000000852F827E04FEA0C1C5FFA8CFC6FF393
:10601000104E42F827E088F800C346F8204095F972
:10602000090095F808C04709203700F01F0E01FA53
:106030000EF143F82710BFF34F8FBFF36F8F00F1BE
:10604000C0074FEA0C1152F827C003446FF3104CFD
:1060500042F827C0C9B283F80013EA6846F8204026
:1060600072B153681B684FF4002143F8041B216A86
:1060700005310091E1692078FFF726FF0646B0B9A7
:106080002A69FAB153681B684FF0006143F8081B96
:10609000216A03310091E1692078FFF715FF064678
:1060A00080B1EB681BB19A681868136A984730464C
:1060B00002B0BDE8F08700BF00E100E000600040F2
:1060C000AC120020EFF31080012383F31088984B6B
:1060D0002E78D3F800214FF00041F14022EA01026E
:1060E000C3F80021D3F8003180F31088236AE069F7
:1060F00000229A701A715A729A72DA725A83297847
:1061000040F20722CA40D20744BF4022DA74062276
:106110001A7722787AB1C168013A002900F0FE802E
:106120000126120391B2314341F006029A829A8A03
:1061300092B29142FBD1EA78A978D20042EA0112E8
:106140006978032900F0D780002914BFF221E221E9
:10615000ED69D2B21A7099712A7B520002F00202E4
:106160005A736A78A97800261E7295F800C0D20189
:10617000490101F02001D2B20A43ACF10201012928
:1061800040F2BD80D2B2DA716A689178597019789C
:10619000567866F301011970D17899741278D9791B
:1061A00002F05C0201F0A3010A43DA710027C4E99E
:1061B0000377C4E9057790F905105E4E01F1C00E32
:1061C0004A0956F82E80920067F3104802F16042A7
:1061D00046F82E8002F561424FF0010E01F01F01DA
:1061E0000EFA01F1C2F88011116090F90B1001F163
:1061F000C0094A0956F829A0920002F1604202F54E
:10620000614267F3104A01F01F0146F829A00EFA17
:1062100001F1C2F88011116090F9071001F1C00975
:106220004A0956F829A0920002F1604202F5614243
:1062300001F01F0167F3104A46F829A00EFA01F198
:10624000C2F88011116090F9091001F1C0004A09EB
:1062500056F82090920002F1604267F3104946F828
:10626000209002F561420CF0030C01F01F010EFAC0
:1062700001F14CF0700CC2F88011116083F802C07B
:106280006B8923814FF6FF7843452DD0EFF31081C2
:106290008EF31088284A13681BB92848C37040231E
:1062A000C37013680133136081F310882189244877
:1062B0000B0A1B0153FA81F150F8213023F001132E
:1062C00023F4404343F0040340F82130EFF31081FE
:1062D000012383F31088136813B11368013B136023
:1062E0001368B3B181F31088164B63600026304603
:1062F00002B0BDE8F08742F04002F22128E7BCF18D
:10630000020F08BF42F01002FF21D2B25970DA71B9
:106310004CE70A4A8020D370D070E3E7C169097A5C
:106320001140090201F4706141F00106F9E600BF75
:10633000006F044000600040A8120020000D0440DF
:1063400000080440554943532DE9F04F1E46FF23F2
:10635000B37033786FF382038BB033708023F370A4
:10636000554B0992554A1B6A12680191C3F30261A9
:106370008A40C3F30233DA40514B07900021100AE0
:1063800006920891059002910093A2FB03BA099B23
:10639000009A93426EDA9DF8203003930027494B10
:1063A000039ADD5DC5F34003C5F3800504932B43D9
:1063B000934256D1444B33F81780079B03FB08F8F0
:1063C000069BB3FBF8F2541EFF2C4AD802FB08F9D7
:1063D0001DE0059BB9FBF3F37F2B03FB00F040D9D5
:1063E0000028B8BFFF300012A0F5C330A038002845
:1063F000009AB8BF4042824240DC029BF37033787F
:1064000043F00403A9EB0809337054B3013C4A4636
:106410004FEAE973584651460AF0C2F8019A002A39
:10642000D7D1A0F5C333A03B002B009AB8BF5B4285
:106430009A4216DD0093234BB470DA5D3378C2F3D1
:10644000000161F38613049961F3041365F3C30338
:1064500033707378C2F3C10262F301037370019B5E
:10646000029301370D2F9AD1089BF3B1009B099A33
:1064700093421DDC00200BB0BDE8F08F0293114B5E
:10648000049AD95D33780090C1F3000060F386135D
:1064900062F3041365F3C30333707378B470C1F30C
:1064A000C10161F301037370A7E7012308936EE74D
:1064B00003200BB0BDE8F08F00E00140381300204E
:1064C000A0860100983E0100A83E0100F0B5EFF360
:1064D0000383103B5BB203F1C001344A344C52F8E1
:1064E00021006FF3104042F8210054F82300C369E3
:1064F0001B6913B1036913B1F0BD036983B9D0E916
:106500000824937803F07F03002143F00403937081
:10651000C160002CF0D0BDE8F0408022FFF7B2BC93
:1065200005785DB3066AF18AC1F30421A9421ED23F
:106530008478C2681F4F04F0030E74460BE092F893
:1065400000C086F80FC001311B1B2244A942C0E9DC
:1065500003230CD25BB1BEF1020FF0D1B2F800C040
:106560004CEA070C1FFA8CFCA6F80EC0EBE7327958
:106570006FF3C7123271002BBED1C0E7827802F0F0
:1065800003010229C1680BD0046A0D78E57002F09E
:1065900003029B1A0A44C0E90323002BACD1AEE7E7
:1065A0000C88056A44F47E44EC81F0E7006000400A
:1065B000AC12002000FEFFFF10B582B0EFF30383A2
:1065C000103B5BB203F1C001574A584C52F821000E
:1065D0006FF3104042F8210054F82340E369DB6870
:1065E00013B1A369002B49D122894FF6FF739A4258
:1065F00075D12278236AF2B1D98AC80612D01B8AD3
:10660000C3F308030193A369FBB9636A2BB10422A6
:1066100001992046FFF736FC22782AB1236AD98AED
:10662000C906E8D1BE221A7123894FF6FF72934240
:1066300031D102B010BDA17801F003010229DED0F2
:106640005B790193A369002BDFD0A278606902F027
:10665000030201A90AF0A4F9D4E90521A37803F003
:1066600003031A44C91AC4E9052129B9636A1BB195
:1066700001222046FFF706FC2278CEE7636A00215C
:10668000C4E90511002BD4D00122204602B0BDE898
:106690001040FFF7F7BB1A0A1201254952FA83F39B
:1066A00051F8232022F0011222F4404242F0040269
:1066B00041F82320EFF31082012383F310881D4B50
:1066C000196811B11968013919601B681BB91A4999
:1066D0008020CB70C87082F3108802B010BDEFF339
:1066E0001081012383F31088124B1A681AB91248DB
:1066F000C2704022C2701A6801321A6081F3108899
:1067000022890B49130A1B0153FA82F251F82230F5
:1067100023F0011323F4404343F0050341F82230F2
:10672000236A227867E700BF00600040AC120020B7
:1067300000080440A8120020000D044010B5EFF33B
:106740000384103C0B4B64B253F82400D0E90821B9
:10675000937803F07B03937019B102220021FFF7B5
:1067600091FB054BC03453F824206FF3104243F8DB
:10677000242010BDAC1200200060004010B5EFF3E3
:106780000384103C194B64B253F82400037843B9D6
:10679000837803F00303022B03D0036A5979C9B24B
:1067A00003E0036A198AC1F3080193F804C01CF0DE
:1067B000100F0CF0380206D093F81CC01CF0010F2B
:1067C00008BF42F0400293F804C00CF0C70C83F8F5
:1067D00004C0436A0BB1FFF755FB054BC03453F8B7
:1067E00024206FF3104243F8242010BDAC12002087
:1067F0000060004030B5436A85B004468C4601AD68
:10680000ABB193E8070085E807006268117883F868
:1068100004C0A26A9A6019601846226A9047636AA7
:106820001BB195E8070083E8070005B030BD2B4693
:10683000EBE700BF10B4EFF30383103B5BB203F14F
:10684000C001144A144C52F821006FF3104042F872
:10685000210054F823305A69D9698A4206D2D3E913
:106860000240A8B1805CE07001325A618A4202D0D5
:106870005DF8044B70471A69002AF9D19A685DF8EF
:10688000044B937803F07B0343F004039370704749
:10689000E070E9E700600040AC12002010B4EFF3B4
:1068A0000383103B5BB203F1C001174A174C52F847
:1068B00021006FF3104042F8210054F823305A6948
:1068C000D9698A4206D2D3E90240D0B1805CE07037
:1068D00001325A619A698A4207D2986819694079E7
:1068E000541C9C618854D3E90621914206D19A68D0
:1068F000937803F03B0343F0040393705DF8044B7B
:106900007047E070E4E700BF00600040AC12002078
:1069100010B5EFF30384103C0A4B64B2012153F825
:1069200024008268937803F003039370FFF762FFFB
:10693000C034054B53F824206FF3104243F8242051
:1069400010BD00BFAC1200200060004010B5EFF396
:106950000384103C0C4B64B24FF0840C53F82400B9
:1069600083689A7802F003029A701A7983F804C057
:106970000421FFF73FFFC034044B53F824206FF38A
:10698000104243F8242010BDAC12002000600040EB
:1069900002690023F0219370D17290F82A10C26925
:1069A000036280F8303080F82C104262184670473D
:1069B0004160027200207047C0E90E32416300203E
:1069C000704700BFC368044A9B1AB3FA83F35B099C
:1069D0000B700020704700BF4332495310B5026965
:1069E0000023F02193709370D17290F82A100268FE
:1069F00080F82C1004469169C0696062236284F8B3
:106A00003030E36021B18B6808681B6A98472268C0
:106A100053691BB19A681868136A9847EFF310819D
:106A2000012383F310882368074A1C78D2F80001F9
:106A30004FF00043E3400343C2F80031D2F8003185
:106A400081F31088002010BD006F0440036859696D
:106A5000A1B190F82D3070B5044603F0FF0563B97D
:106A60008A68038C96680868A1692A46B047E2697B
:106A7000C4E90852012384F8333070BD704700BF69
:106A800038B590F808C080F82E30BCF1010FC0E98D
:106A90000612054647D090F82AC085F82BC000237F
:106AA00085F82D3085F82F3085F8313085F8333072
:106AB00095F82D1085F82C30C5E9082311B1012374
:106AC00085F831302A682B695269B42199706AB10E
:106AD000526800211268997095F82D40FCB94FF06A
:106AE000006111602321B42299729A7095F83020C8
:106AF0001AB95122DA72002038BD0022BCF1010F10
:106B000085F8302019D0012295F82910D9700CF1A0
:106B1000FF3C85F82BC085F82C20002038BD116083
:106B200011495160DEE7436880F82AC000215B000C
:106B300080F8291080F82830AFE72846FFF786FF55
:106B400095F82A3095F82C20012B07D1013295F8C1
:106B500028102B6995F82BC0D2B2D7E701322B69E8
:106B600095F82BC0D2B2CFE7C23E010038B590F8FD
:106B700008C080F82E30BCF1010FC0E906120546AE
:106B800047D090F82AC02A620023012185F82D10F1
:106B900085F82F3085F8313085F8333085F82C3082
:106BA0006B6295F82D3085F82BC00BB185F831104C
:106BB0002A682B695269B42199706AB15268002120
:106BC0001268997095F82D40FCB94FF00061116082
:106BD0002321B42299729A7095F830201AB9512263
:106BE000DA72002038BD0022BCF1010F85F8302098
:106BF0001BD0012295F82910D9700CF1FF3C85F8C3
:106C00002BC085F82C20002038BD1160124951603E
:106C1000DEE7436880F82AC05B00002143F00103EF
:106C200080F8291080F82830ADE72846FFF70EFFDE
:106C300095F82A3095F82C20012B07D1013295F8D0
:106C400028102B6995F82BC0D2B2D5E701322B69F9
:106C500095F82BC0D2B2CDE7C23E01002DE9F0433A
:106C60000B788A68426003F1007303F560535B019F
:106C7000016003610A7B02720D46D1E9062141637E
:106C8000296AC163002183B004468163C2B151689F
:106C900095F90EC00F6803C905336E464FF4002EF8
:106CA0007B60C7F800E086E80300019B83F800C022
:106CB000936810681B6831469847002840F0AC8004
:106CC0006B69D3B15A682768166897F90F7092E814
:106CD000030022690332B2604FF0000C6A46C6F826
:106CE00000C082E803001146019A17709A6818687C
:106CF00013689847002840F0AD80EFF310804FF004
:106D0000010C8CF31088584B2E78D3F800214FF0EB
:106D10000041F14022EA0102C3F80021D3F800311A
:106D200080F3108822682369516A504F0020F022B6
:106D30009870DA728A7802F003021A700A78FA26DA
:106D400092009E7142F020024E785E70D2B2DA71EB
:106D50004A791A72CA789A740A79454ED20042EA80
:106D60000C02D2B25A7223229A72587395F90F30DC
:106D70006A7BF1181201D2B281F8002303F1C00836
:106D800047F823403B494FEA531E51F828904FEAF9
:106D90008E0E0EF1604E0EF5614E60F3104903F059
:106DA0001F0341F828900CFA03F3CEF88031CEF897
:106DB000003095F9103006EB030E03F1C0088EF891
:106DC000002347F823404FEA531E4FEA8E0E51F836
:106DD00028900EF1604E0EF5614E03F01F030CFA81
:106DE00003F360F3104941F82890CEF88031CEF8D3
:106DF000003095F90E30834211DA0020C4E9080012
:106E00001D4B84F82D00A06184F82E00E06184F809
:106E10002F00E36084F8300003B0BDE8F0831E4427
:106E200003F1C00586F8002347F823405A09920071
:106E300051F8256002F1604202F5614203F01F0340
:106E40000CFA03F360F3104641F82560C2F8803174
:106E50001360D2E7AB69002BDED09A681868136A1A
:106E600098470028D8D148E7006F0440AC120020B2
:106E700000E100E0006000404332495370B5866B8A
:106E800082B004460B466D463EB396E8030085E8A3
:106E90000300E26B3371236832605A6912B194F8CF
:106EA0002D10A1B19B6913B194F82D2052B9636BD9
:106EB00030469847A36B1BB195E8030083E80300B5
:106EC00002B070BD9A68186813699847EFE7936835
:106ED00010681B6998472368E4E72E46D9E700BF8E
:106EE000EFF30383103B5BB2044AC03352F8231024
:106EF0006FF3104142F82310704700BF006000405C
:106F000070B5EFF30383103B5BB2614AC03352F8B4
:106F100023106FF3104142F82310EFF30383103B6B
:106F20005C4A5BB252F823402269137BC3F3000032
:106F3000DB072CD494F82C3094F82A10994216D000
:106F400094F82D1009B1022B41D02046FFF77EFDA9
:106F5000236994F82820DA7094F82B2094F82C30C8
:106F6000013A013384F82B2084F82C3070BD94F85A
:106F7000333003F0FF053BBB236A93BB94F82E30FC
:106F800063B352210123D17284F8303070BD94F87C
:106F90002D308BB194F8313073B9636AA16952799D
:106FA000CA54D4E9082394F82E10013A0133C4E9F5
:106FB000082379B12269E4E70020012154232062EB
:106FC00084F82F10D37270BD84F8330070BD522343
:106FD000D37270BD23695422DA7270BD5423D37208
:106FE00070BD94F82D1041B9616AA069013B405C05
:106FF0000131C4E90831D07070BD94F83110002916
:107000002ED0216884F831504869002838D0896929
:10701000002935D0E069022832D98E68831E0868BD
:10702000B668F42191709BB2A2692946B0472268E4
:10703000E3695269916810688E68023B9BB22A46E8
:107040002946B047E36922690220023BC4E90803EC
:10705000012184F833100023FF209372D070CBE716
:10706000636AA1695279CA54D4E90832013B0132FA
:10707000012BC4E90832226904D0FF20D070BBE79D
:10708000012BE8D12023FF209372D070B4E700BF1A
:1070900000600040AC12002010B582B0EFF3038313
:1070A000103B374A5BB252F823000269D37A6FF380
:1070B000C303D37290F82F30ABBB90F82A1003F0C3
:1070C000FF0C90F82C3099421BD1036A5BB990F801
:1070D0002D1090F83040002914BF02210321A4B3E1
:1070E000D372FFF7CBFEEFF30383103B5BB2254A6D
:1070F000C03352F823106FF3104142F8231002B04E
:1071000010BDB3B9012929D090F829C00021D1724E
:1071100082F803C090F82B200133013A80F82B202D
:1071200080F82C30DFE7F023D3720121FFF7A6FEB1
:10713000D9E790F82D4004F0FF016CB1022BE5D1A6
:1071400090F829C04CF0010CE0E7F023D37293785B
:1071500003F0CF039370C4E78C46D7E70190FFF7A5
:1071600075FC019890F82A30012B05D190F828C0C1
:10717000026990F82C30C9E7026990F82C30C3E717
:10718000AC12002000600040F0B583B0EFF3038440
:10719000103C154B64B253F82450EF68BFB16A68D5
:1071A0002B6992F90D20121B18BF01226E46C3B144
:1071B00093E8030086E803001A706A695A6018466B
:1071C000B8472B691BB196E8030083E80300074B1F
:1071D000C03453F824206FF3104243F8242003B046
:1071E000F0BD3346E8E700BFAC120020006000406D
:1071F000EFF30383103B5BB20649074A51F82310B3
:107200000120C033087252F823106FF3104142F886
:1072100023107047AC12002000600040C8B2012368
:1072200083404AB91A040B0A5B0103F1804303F55A
:10723000802300209A6070479AB2F4E738B504883A
:10724000002C4DD043680021043303EBC40040F20E
:1072500002450C4640F2034C40F2044E0FE06245FA
:1072600030D153F8042C02F0B852B2F1807F14BF31
:1072700041F0020144F002040833834211D01A881D
:10728000AA42ECD153F8042C02F0B852B2F1807F3C
:1072900003F1080314BF41F0010144F001048342EB
:1072A000EDD1C943CDB2012002F09EFA0D4B93F807
:1072B000BB2414432C4083F8BB440120BDE8384074
:1072C00002F062BA7245D7D153F8042C02F0B852DA
:1072D000B2F1807F0CBF44F0040441F00401CBE71D
:1072E000FF25E0E700E0014070B584B002AB012665
:1072F00068460C461546ADF80C100292ADF80060D9
:107300000193FFF79BFFEFF3108286F310881D496E
:107310000B681BB91C48C3704023C3700B68013352
:107320000B6082F31088EA034FEA1423E4B219D405
:107330001B01164A234442F82350EFF31082012325
:1073400083F310880B6813B10B68013B0B600B686B
:107350001BB90D498020CB70C87082F310880020C3
:1073600004B070BD04EB0310084A52F820606FF3BC
:10737000104642F8206025F4803642F820601B0158
:10738000D7E700BFA8120020000D04400008044009
:10739000034610B400209C685A614FF0010C83F83A
:1073A00021C083F82300C3E903122279986142F0D7
:1073B00010022271227960F3C30222715DF8044B3E
:1073C00083F82400704700BF034610B400209C6877
:1073D00083F8210083F82300C3E903125A6122795C
:1073E000986142F010022271227960F3C302227187
:1073F0005DF8044B83F82400704700BFC0E90B32EE
:1074000081620020704700BF10B4826803682F4C6F
:1074100000214160D17193F90F304FEA531C03F002
:107420001F020CF1200C012303FA02F244F82C2075
:10743000BFF34F8FBFF36F8F026892F90C204FEAB2
:10744000521C0CF1200C02F01F0203FA02F244F865
:107450002C20BFF34F8FBFF36F8F026892F90D207E
:107460004FEA521C0CF1200C02F01F0203FA02F248
:1074700044F82C20BFF34F8FBFF36F8F026892F94F
:107480000E204FEA521C0CF1200C02F01F0203FAEE
:1074900002F244F82C20BFF34F8FBFF36F8FEFF34E
:1074A000108483F310880068094A0078C0F109004D
:1074B0008340D2F800010343C2F80031D2F8003112
:1074C00084F3108808465DF8044B704700E100E043
:1074D000006F044070B5C36A84B004468C461646FB
:1074E00001AD9BB193E8070085E8070083F808C069
:1074F000226B1846C3E90026A26A9047E36A1BB1D3
:1075000095E8070083E8070004B070BD2B46EDE75F
:107510008268012370B580F820300226B323D3712E
:1075200080F82160537904466FF300035371C269F8
:107530000D46FFF7CFFFA368DE705A7942F00102D3
:107540005A7194F82120012A16D094F8212002B112
:1075500070BD052DFCD194F82320002AF8D194F8B1
:1075600021201AB95A7A02F0F3025A72BF2101227D
:10757000D97184F8232070BD042DECD0082DE4D1FE
:10758000E9E700BF2DE9F0430B78D1E9054203F5A7
:10759000800303F5A6631B020026C0E90B6283602B
:1075A00001608462EFF31084012383F310880A786A
:1075B000C2F109029340774AD2F8001121EA03038D
:1075C000C2F80031D2F8003184F310880268836871
:1075D000D56980F823601F21AC7819705F2119707C
:1075E000DF211970917A012900F0CD801689F10907
:1075F00001F0060141F00101F6B2D9729E72D17A12
:107600005668C90041F00101C9B2997162498E42C0
:107610004FF00201D9700CBF6FF07F010021002CE8
:1076200000F0AC8041F07D01C9B2013C597164B2F7
:10763000697841F0E00119742978584D090101F089
:10764000700141F008019970917C44EA8114E4B220
:10765000A0211C71D9719F21197092F90F30517CB2
:107660004F4C0901E618C9B286F8001303F1C007B0
:107670004C4945F8230051F827C05E09B6006FF366
:10768000104C06F1604641F827C006F561464FF000
:10769000010C03F01F030CFA03F3C6F880313360CA
:1076A00092F90D3092F810E0E6184FEA0E1E5FFADC
:1076B0008EFE03F1C00786F800E345F823005E095B
:1076C00051F82780B60006F1604606F561466FF373
:1076D000104803F01F0341F827800CFA03F3C6F8A3
:1076E0008031336092F90E30E71803F1C00887F853
:1076F00000E345F823005F0951F82890BF0007F127
:10770000604707F561476FF3104903F01F0341F825
:1077100028900CFA03F3C7F880313B6092F90C20F3
:107720001444530984F800E345F8220002F1C00430
:107730009B0051F8245003F1604303F5614302F0CC
:107740001F020CFA02F26FF3104541F82450002694
:10775000C3F880211A60022280F82460124B80F85E
:107760002120C0E9056680F82260C660066143609A
:1077700080F82060C6613046BDE8F08341F05D01CD
:10778000C9B2597154E71189DE724900C9B29972C0
:1077900035E700BF006F044040420F00AC120020EC
:1077A00000E100E0006000405343324930B583B04F
:1077B000EFF30383103B5BB2454AC03352F823100A
:1077C0006FF3104142F82310EFF30383103B5BB2D9
:1077D000404A52F8234094F82230B3B9A3680122FA
:1077E00084F82220DA7CD2B28DF805209DF805209D
:1077F00012F0010F5A7A14BF02F0F70202F0F302FE
:107800005A72AC22DA7103B030BD94F820304BB913
:10781000A3681B7A13F0080F204614BF0821042127
:10782000FFF776FE2269A2B9A368D97CC9B28DF8A8
:1078300006109DF80610197941F010011971197997
:1078400041F008011971197962F30411197103B03B
:1078500030BDA369A1689A4209D0E268C97C581C6E
:10786000A061D154E3690133E36103B030BD022567
:1078700084F821504B79E2696FF300034B71204685
:107880000621FFF727FEA3682169DD705A7942F0CF
:1078900001025A7191B9DA7CD2B28DF807209DF8B5
:1078A00007201A7942F010021A711A7942F0080280
:1078B0001A711A7961F304121A71A4E7A269E168D6
:1078C000DB7C501CA0618B54E3690133E3619AE7D0
:1078D00000600040AC12002038B5EFF30383103B8A
:1078E0005BB2244AC03352F823106FF3104142F8C0
:1078F0002310EFF30383103B5BB21F4A52F823407F
:1079000094F8203093B194F8213003F0FF0263B96A
:10791000A369216999420ED0E269E068A168C05C60
:10792000887401330132C4E9063238BD052120468E
:10793000FFF7EEFDE7E723680E4993F90E3003F1F8
:10794000C000002B51F8205062F3104541F8205040
:1079500009DB5A09094803F01F030121603201FACB
:1079600003F340F82230A268D37943F04003D37187
:1079700038BD00BF00600040AC12002000E100E014
:1079800038B5EFF30383103B204A5BB252F8234033
:10799000A1680B795807C3F3800217D5CA796FF332
:1079A0008612C023CA7101E0013B02D0CA79520697
:1079B000FAD4EFF30383103B5BB2154AC03352F89D
:1079C00023106FF3104142F8231038BD022584F8CC
:1079D00021504B7962F300034B71E2690721204685
:1079E000FFF778FDA168CD704B7943F001034B712F
:1079F00094F82130002BD1D1A369E269E06801320B
:107A0000C05C88740133C4E90632C7E7AC120020B9
:107A10000060004010B582B0EFF30383103B3E4A94
:107A20005BB252F8230083685A7A91074DD1D1B2E4
:107A300011F00C0F3CD0012280F8242090F8212076
:107A4000012A65D0016982699142C26988BF02F149
:107A5000FF324FF0030188BFC2614FF0000EA02437
:107A6000DC7180F820E080F822E093F805C06EF326
:107A7000000C83F805C090F82440002C43D1DF248B
:107A80001C709F241C7000240223C46180F82130E4
:107A9000FFF720FDEFF30383103B5BB21F4AC033B7
:107AA00052F823106FF3104142F8231002B010BDBA
:107AB000CA06EFD5DA7CD2B28DF807209DF80720F0
:107AC000DA7902F0EF02DA71E4E70022A02180F80F
:107AD0002420D97180F8202080F82220597962F37F
:107AE0000001597190F8241081B9DF219F2219708B
:107AF0001A7000210223C26980F82130C16101217E
:107B0000FFF7E8FCC6E783F809E0BCE75A72F0E744
:107B1000C2690221A1E700BFAC1200200060004052
:107B20004160027200207047C0E90E3241630020BC
:107B3000704700BFC368044A9B1AB3FA83F35B091A
:107B40000B700020704700BF4349495230B5836B2A
:107B500083B004460A466D46A3B193E8030085E866
:107B60000300E16B1A71626B196018469047A36BB2
:107B70001BB195E8030083E80300002384F82B3051
:107B800003B030BD2B46ECE730B4334B02691B6ABF
:107B900082B003F00F2301930199019D137C90F8AB
:107BA0002C4094B9C1F30321DBB2A1EB15618B40EA
:107BB0009B0805D1082002B030BC7047013BF9D0CA
:107BC0005178C909FAD1B323D3710023016890F821
:107BD000264080F8283080F827404C6A856980F874
:107BE0002B30C56180F82D30036280F82E3080F88C
:107BF0002F3080F8303023786478012B0CBF0523B8
:107C0000042343EA4403DBB2D370537943F0010306
:107C1000537191F90F30002B09DB10495C090122E7
:107C200003F01F0302FA03F341F824300269BF2373
:107C3000D37190F82C1001F0FF0331B1002380F8CC
:107C40002C30184602B030BC7047022118465170E3
:107C500002B030BC704700BF00E0014000E100E02E
:107C600090F808C080F82A30BCF1010FC0E9051275
:107C70000AD1436880F826C05B00002243F001036C
:107C800080F8252080F82430012380F82930FFF780
:107C90007BBF00BF90F808C080F82A30BCF1010F0C
:107CA000C0E9051208D1436880F826C000225B00B5
:107CB00080F8252080F82430002380F82930FFF751
:107CC00063BF00BF036902682DE9F04F1F241C70D9
:107CD0005F241C70DF241C70546A55682279564E4C
:107CE000DFF8608142F0E0021A74E27842F0E002CC
:107CF0005A74A278120102F0700242F008029A70DF
:107D000022786478012A0CBF0522042242EA440248
:107D1000D2B2DA70494A95420CBFF72277225A71E3
:107D20000027B3229F71DA7191F9112091F80DC0EB
:107D3000B4184FEA0C1C5FFA8CFC84F800C302F103
:107D4000C00548F822003E4C4FEA521E54F82590D8
:107D50004FEA8E0E67F310490EF1604E44F82590FD
:107D60000EF5614E012502F01F0205FA02F2CEF86F
:107D70008021CEF8002091F90F2006EB020E02F1CF
:107D8000C0098EF800C348F822004FEA521E4FEA9D
:107D90008E0E54F829B00EF1604E0EF5614E02F0D1
:107DA0001F0205FA02F267F3104B44F829B0CEF82F
:107DB0008021CEF8002091F9102006EB020E02F18E
:107DC000C0098EF800C348F822004FEA521E54F84A
:107DD00029B04FEA8E0E0EF1604E0EF5614E02F0A4
:107DE0001F0267F3104B44F829B005FA02F2CEF8EF
:107DF0008021CEF8002091F90E100E444A0986F831
:107E000000C348F8210001F1C00001F01F018D40BE
:107E100054F82010920002F1604267F3104144F8D8
:107E2000201002F561424FF09F0AC2F880511560A0
:107E300083F800A0BDE8F08F00E100E040420F00B1
:107E400000600040AC1200200A7802F5800202F5C2
:107E5000A662120270B502618A68016042600A7B04
:107E60000272CA69426300250A6AC26304468563D6
:107E7000EFF3108C012282F310880B78C3F1090311
:107E80009A400E4BD3F8006126EA0202C3F80021A3
:107E9000D3F800318CF31088FFF714FF084B84F8F7
:107EA0002950C4E9075584F82A50656184F82B509D
:107EB000A56184F82C50E360284670BD006F044033
:107EC0004349495238B5C369044613B990F82C3078
:107ED000A3B1236921680025DD712046FFF7F2FE7A
:107EE000A36994F826202362236984F82820B3220A
:107EF000E56184F82C500020DA7138BD90F82B3001
:107F0000002BE6D12369B322DA71002038BD00BF0F
:107F100038B5C36904461BB990F82C30002B6FD0DC
:107F2000236921680025DD712046FFF7CBFE94F818
:107F30002620A369E56184F82820236284F82C5068
:107F4000236922680020B321D971D871E06092F9C9
:107F500011302E494FEA531C03F01F020CF1200C84
:107F6000012303FA02F241F82C20BFF34F8FBFF335
:107F70006F8F226892F90E204FEA521C0CF1200CF0
:107F800002F01F0203FA02F241F82C20BFF34F8FD8
:107F9000BFF36F8F226892F910204FEA521C0CF148
:107FA000200C02F01F0203FA02F241F82C20BFF36A
:107FB0004F8FBFF36F8F226892F90F204FEA521C48
:107FC0000CF1200C02F01F0203FA02F241F82C20FF
:107FD000BFF34F8FBFF36F8FEFF3108583F31088DC
:107FE00021680B4A0978C1F109018B40D2F80011D0
:107FF0000B43C2F80031D2F8003185F3108838BD48
:1080000090F82B30002B9BD08AE700BF00E100E006
:10801000006F044010B483B0EFF30383103B5BB2F6
:10802000484AC03352F823106FF3104142F823102E
:10803000EFF30383103B444A5BB252F8233093F8CA
:108040002D20BAB99A69022A1A699EBF117941F0A6
:1080500040011171D969012917D0D27CD2B28DF8B3
:10806000072001219DF8072083F82D1003B05DF84B
:10807000044B7047DA69002AF8D0032A0ED0022A8E
:108080004ED0012A21D019690DE0117941F010017B
:108090001171117941F008011171DEE719690A794E
:1080A00042F040020A711A6A5869C97C8154D3E9C6
:1080B00007210131013AC3E90721002AD6D1196904
:1080C0000B7962F386130B71D0E793F82A1089B30A
:1080D00019681E4C91F90F104809203001F01F015A
:1080E00002FA01F144F82010BFF34F8FBFF36F8FF6
:1080F0001969C87940F08000C871087940F0100013
:10810000087108794FF0040C6FF3C300087181F80F
:1081100001C048796FF30000487183F82C20C2E752
:1081200019690A7942F010020A710A7942F00802CC
:108130000A71B8E719694A7A082002F0F7024A7210
:108140004870B0E700600040AC12002000E100E0A1
:10815000EFF30383103B5BB2354AC03352F8231070
:108160006FF3104142F82310EFF30383103B5BB22F
:10817000304A52F8232092F82730002B37D192F85A
:1081800029309BBBD36910B4002B42D11069C1794F
:108190006FF3C711C023C17101E0013B02D0C17967
:1081A000C909FAD11368224A93F9103003F1C001CA
:1081B000002B52F821406FF3104442F8214009DBB4
:1081C0005A091D4C03F01F030121603201FA03F329
:1081D00044F82230C3795DF8044B43F04003C37187
:1081E0007047022909D192F8300030B9704792F8EF
:1081F0002610032992F82810F3D0106992F824C0B1
:1082000080F812C00131013B82F8281082F8273033
:108210007047D2E90404116A013B645C8474013143
:10822000C2E90731002BB2D05DF8044B704700BFA4
:1082300000600040AC12002000E100E010B4EFF359
:108240000383103B2B4A5BB252F8233093F829206A
:108250001AB193F82720012A47D0DA69D2B11969F7
:10826000CA796FF38612C023CA7101E0013B02D0C4
:10827000CA795206FAD4EFF30383103B5BB21E4A6D
:10828000C03352F823106FF3104142F823105DF809
:10829000044B704793F82A10F9B11968174C91F9FB
:1082A0000F10480920304FF0010C01F01F010CFAAB
:1082B00001F144F82010BFF34F8FBFF36F8F19699E
:1082C000C87940F08000C87104204870487962F392
:1082D0000000487183F82CC0C2E719694B7A082264
:1082E00003F0F7034B724A70BAE793F83020002A84
:1082F000B3D1B4E7AC1200200060004000E100E020
:1083000038B5EFF30383103B514A5BB2E02152F8DA
:10831000234023695A7A5972D506D0B202F003017C
:108320001FD55A78520648D4E269012184F82B10EF
:10833000002A65D000252168DD712046FFF7C2FCC8
:1083400094F82610A2692369E56184F82810226256
:1083500084F82C50B322DA7101212046FFF7F6FB96
:1083600012E00029E0D101071BD594F82B20002A48
:108370004FD194F82910B322002914BF0221032100
:10838000DA712046FFF7E2FBEFF30383103B5BB2A9
:10839000304AC03352F823106FF3104142F82310D3
:1083A00038BD94F82C20002AEED04207ECD594F882
:1083B0002B200121002AE4D1DBE70029B4D15A782F
:1083C0005506C2F38011CED584F82B105A7A216855
:1083D00002F0F702486A5A7208255D700278E06977
:1083E000012A0CBF03220222DA705A7942F00102FC
:1083F0005A7110B994F82C2022B30025DD719CE746
:1084000094F82C20002A95D194F82B20002AA1D092
:1084100090E7E2696AB1002294F82600A169E2615E
:1084200084F82800216284F82C20B322DA7101211B
:10843000A7E794F82C20002AEDD194F82B20002AED
:10844000F3D0E8E794F82B20002A83D0D5E700BFCB
:10845000AC1200200060004010B582B0EFF303843E
:10846000103C164B164964B253F8242050790B5C2B
:1084700003F00303032B0FD0C03451F824306FF303
:10848000104341F82430936823B1D268CDE900202D
:108490006846984702B010BD936823B1D268CDE911
:1084A000002068469847064BC03453F824206FF3E9
:1084B000104243F8242002B010BD00BFAC120020CF
:1084C000006000400346D3E9022300205360704758
:1084D000D0E90123D26930B4D2E9011444F0004458
:1084E000D0685C61D2E9045440F0004041F00041A2
:1084F0009861196100205D629C6230BC704700BFCA
:10850000002800DA704710B400F16043114C03F505
:1085100061430901C9B283F8001344F820200E49D1
:1085200000F1C00200F01F0C400951F82240800009
:1085300000F1604000F561406FF31044012341F801
:10854000224003FA0CF3C0F880315DF8044B03605D
:10855000704700BFAC1200200060004070B5836916
:1085600084B004468C46164601AD9BB193E80700E3
:1085700085E8070083F804C0E2691A609E60184627
:1085800062699047A3691BB195E8070083E807007B
:1085900004B070BD2B46EDE790F800C0486EBCF10A
:1085A000030F98BF01300AB1824227D310B4019C57
:1085B000496BE40754BF01F01F01C1F30441BCF152
:1085C000030F09D9090981F0010172B9E9B9022241
:1085D0005DF8044B5A60704701F00C01A1F10401F1
:1085E000B1FA81F14909002AF0D0824201D3002971
:1085F000EDD103225DF8044B5A607047BCF1030FC4
:1086000098BF02F1FF321A6070470028DFD0F0E710
:108610002DE9F0470B7C0D46012101FA03F2C260FF
:10862000920716BF002201740274D5E9052103F5F3
:10863000800303F5F0631B0242610022EE6945608E
:10864000C0E9062184B004468360EFF31080012363
:1086500083F31088854B297C0229D3F8081134BF95
:108660006FF020076FF040073940C3F80811D3F8C6
:10867000083180F31088A3686F684FF425411960B2
:10868000DA62DA639A642A78297A032A4FEAC151B6
:1086900007F1FF3C00F0D58084BF41EA0241BC46AF
:1086A000D6E9068ED9624FF0004119610020596168
:1086B00099614FF0FF315862039098620291C3F8BC
:1086C0001C80C3F820E0D6F82C80C3F868C0C3F83B
:1086D00064C0002A40F0A080790801390291404628
:1086E00001224FF0030C5965996500285DD095F87B
:1086F00000E0B76A002F71D0B97897F803900906A7
:1087000041EA097197F8049041EA09419963B9680F
:10871000C3F88C10002965D0012148B997F81C9046
:1087200097F81BA04FEA496949EA4A2948EA09082B
:10873000C3F8881040B996F8211096F82000490730
:1087400041EA403148EA01084FF4AA01BEF1010FA5
:10875000196402D10021D9641965E168D960C3F8B0
:108760003480C3F830C01A63697C95F91200224640
:10877000FFF7C6FE96F8221096F924002246FFF76E
:10878000BFFE96F8231096F925002246FFF7B8FEA3
:108790002FB1397897F901002246FFF7B1FE344B2B
:1087A0002360002004B0BDE8F0873178F9B995F86E
:1087B00000E0B17800299CD0F778BEF1020F4FEAB3
:1087C000071141EA87113FD04BD903273943B76AD4
:1087D00048EA014848F08078002F8DD19F63C3F8A4
:1087E0008870A7E7F968003918BF012195E795F867
:1087F00000E07178BEF1020F4FEA81194FEA0117CC
:1088000024D029D9032148EA010848EA090848EA9E
:10881000070848F48078CCE7012A19D0009019465F
:10882000EA68606802ABFFF7B7FEDDE902100204F8
:1088300042EA006242F0030CA368F06A42F00102CF
:1088400051E741F480312BE70927BFE70921DAE737
:1088500040464FF0030C46E7002914BF09210621CA
:10886000D1E7002F14BF09270627AFE7006F0440A8
:108870005450470030B4436893F91220DB69002A52
:1088800011DB51092E4D02F01F0C2031012404FA96
:108890000CF445F82140BFF34F8FBFF36F8F294988
:1088A000002441F8224093F92420002A11DB5109C9
:1088B000234D02F01F0C2031012404FA0CF445F87A
:1088C0002140BFF34F8FBFF36F8F1E49002441F843
:1088D000224093F92520002A11DB5109184D02F09E
:1088E0001F0C2031012404FA0CF445F82140BFF399
:1088F0004F8FBFF36F8F1349002441F822409B6ACA
:10890000A3B193F90130002B10DB03F01F045A09C7
:108910000121A14020320A4C44F82210BFF34F8FAE
:10892000BFF36F8F074A002142F823108268C168A5
:108930000023036030BC184691605363704700BF4A
:1089400000E100E0AC12002030B4EFF30383103BF1
:108950005BB2184A184C03F1C00152F821006FF3C2
:10896000104042F8210054F82300446894F800C0F5
:10897000BCF1010F15D1D0E90254AC600024AC6405
:10898000EC642C6552F8215064F3104542F82150F4
:108990005A090A4903F01F0360320CFA03F341F845
:1089A0002230436923B1002230BC1146FFF7D6BD07
:1089B00030BC704700600040AC12002000E100E0D5
:1089C0001E4B10B4C3600B7803F001034370EFF348
:1089D000108C012484F31088194BD3F8082122F459
:1089E0008012C3F80821D3F808318CF31088EFF314
:1089F000108C84F310884278D2B9C468237962F36A
:108A0000861323718CF310884A684B78D278C46837
:108A1000D201DB01D2B2DBB26271A3710123E37137
:108A20000A780270074B43605DF8044B00207047E2
:108A3000C26813796FF3C7131371E3E700E00540D1
:108A4000006F044000434144C3684278002023F88B
:108A500012107047EFF31083012282F310884278DE
:108A6000C1683AB90A7942F040020A7183F310886A
:108A7000002070470A7942F080020A7183F310885F
:108A800000207047EFF31081012383F310884278B0
:108A900042B9C068037962F38613037181F31088C9
:108AA00000207047C26813796FF3C713137181F305
:108AB00010880020704700BFEFF3108C012383F370
:108AC0001088437873B9C268117963F38611117104
:108AD000117A63F3861111728CF3108800234360BE
:108AE00018467047C3681A796FF3C7121A711A7A59
:108AF0006FF3C7121A72EFE7F0B5076A8BB006463C
:108B000067B3BE468C46BEE80F006C460FC4BEE895
:108B10000F000FC49EE8030084E80300BCE80F00C8
:108B20003D460FC5BCE80F000FC59CE803008EE86A
:108B30000300F36938469847336A6BB1EE469C46AA
:108B4000BEE80F00ACE80F00BEE80F00ACE80F0075
:108B50009EE803008CE803000BB0F0BD0F46E8E789
:108B600030B58BB0EFF30383103B5BB22E4AC033BA
:108B700052F823106FF3104142F82310EFF30383F0
:108B8000103B5BB2294A52F8235000212822684644
:108B900007F02AFF6C6894F84D380020DBB284F8A7
:108BA0004D08ADF80430B4F84218C1F30012C906FC
:108BB00038D543F02003ADF80430022394F853284D
:108BC00084F8533894F8523803F01F03D2B2E118F6
:108BD00084F8532891F8202860F3820281F8202835
:108BE0002A681268009269466A6A039328460492CA
:108BF000FFF782FFB4F84238DB0611D52B681A69FB
:108C0000127D6AB193F91530002B09DB5A09084827
:108C100003F01F030121403201FA03F340F8223030
:108C20000BB030BD1346DBE700600040AC12002003
:108C300000E100E02DE9F0418AB0EFF30383103B3F
:108C40005BB23F4AC03352F823106FF3104142F831
:108C50002310EFF30384103C3A4B66B2002253F822
:108C60002600D0E900E595F8533885F8532895F8A3
:108C7000527807F01F07DBB207F1200285F853385E
:108C8000130104F0FF0455F803C0CCF380718DF894
:108C90001910E958DEF810301B7B43EAD17303F05A
:108CA00001038DF81830002B46D1CCF38A4305EB35
:108CB000021205939188C1F3030301F00F01082903
:108CC0008DF81A3035D908218DF81A1008AA00231A
:108CD00005EB071808EB030C01339CF806C202F8F9
:108CE00001CB8B42F6D3DEF8003003972F4400937C
:108CF000442387F82038002307934FF48063ADF8AE
:108D000004306946436A0493FFF7F6FEB5F842382B
:108D1000DB070BD5002E09DB76090B4A04F01F0494
:108D20000123403603FA04F442F826400AB0BDE8B5
:108D3000F0810029CAD1D6E72CF06043B7E700BF25
:108D400000600040AC12002000E100E070B58AB085
:108D5000EFF30383103B5BB2214AC03352F8231078
:108D60006FF3104142F82310EFF30383103B1D4AC9
:108D70005BB2012652F823506C6894F8532884F8AB
:108D8000536894F85238D2B203F01F0384F8532882
:108D90000393E2184FF40063ADF804302B681B68AE
:108DA00000936B6A0493002382F82038694682F8A6
:108DB00020382846FFF7A0FEB4F842389B070CD5B0
:108DC0002B6893F91730002B07DB5A09064903F08B
:108DD0001F0340329E4041F822600AB070BD00BFC0
:108DE00000600040AC12002000E100E08268117ACF
:108DF00001F00101137AC3F340039942FAD14368A9
:108E00001978012908D1C16893F810C004484B1E95
:108E10009BB240F82C101380F1231372002070478E
:108E200060120020D0E90223013BF1219BB21380A4
:108E300000201172704700BF8268117A01F00101B1
:108E4000137AC3F340039942FAD143684FF0F40C0C
:108E5000002182F808C0117393F9123013F1210F29
:108E600003D100230360184670478B421ADB5A096E
:108E700010B401210F4C203203F01F0301FA03F359
:108E800044F82230BFF34F8FBFF36F8F43680A4A15
:108E900093F912305DF8044B42F82300002303607D
:108EA00018467047044A42F823000023036018461E
:108EB000704700BF00E100E0AC120020F0B40B7C72
:108EC00003F1401303F500631B02C0E90113EFF344
:108ED0001085012383F310880C7C394AC4F1030404
:108EE000A340D2F8084124EA0303C2F80831D2F8BB
:108EF000083185F31088826800231372137AC3F354
:108F0000400C9B07FAD4CC6982F80AC0E378267833
:108F10000D7A247903F00703002E42D1002D47D1AA
:108F200014734C684768002696735372631E9572DB
:108F30009BB2C4603D7C1380224B43F8254091F9DD
:108F40001230B34222DB4A7C03F1604404F56144F1
:108F50001201D2B284F800231B4A1C4C42F82300B1
:108F600003F1C0055A0954F82570920002F16042DD
:108F700066F3104744F8257002F5614203F01F03C1
:108F8000012404FA03F3C2F880311360D1E90541EA
:108F900000230F4A0461C0E905310260F0BC1846A5
:108FA0007047502E06BF43F0500365463343B7E782
:108FB00085F0020543EA0513DBB23546B0E700BF92
:108FC000006F044060120020AC12002000600040DE
:108FD00054474100F0B585B0EFF30383103B5BB21B
:108FE00003F1C0011B4A1C4C52F821006FF31040E2
:108FF00042F8210054F82340D4E901120978137A89
:109000000129DBB204D1F42103F0F00311721372D1
:109010002769B7B1656901AECDB195E8070086E86B
:1090200007009B0644BF00232B71A3692B602846D1
:10903000B84763691BB196E8070083E80700A26898
:10904000137ADBB203F00F03137205B0F0BD35469F
:10905000E7E700BF00600040AC120020034600209C
:109060001A689B8A1380704703681B88C3F3C03358
:1090700000200B70704700BF03681031002033F8E8
:1090800011301380704700BF43682DE9F041D1E9EA
:1090900001250C685E6903681FFA84F8A3F8048050
:1090A0001FFA82F8A3F8148022F0405C1FFA85F8BA
:1090B00024F0405E25F040572243A3F808804FEA91
:1090C0001C4C3F0C4FEA1E4812F0405FA3F806808C
:1090D000A3F816C05F8159D1CA68002A00F09880B1
:1090E00015892F0522D5D2E900C7B2F80A80A3F866
:1090F0009050A3F89C80B2F80C80A3F89E801FFAD1
:109100008CF8A3F89480CCF30B484FEA1C7CA3F8AE
:10911000968083F892C01FFA87FCA3F898C0C7F323
:109120000B4C3F0FA3F89AC083F89370AF051FD480
:109130000A8AA3F89050A3F88020F27892B11A8896
:10914000BEFA8EF11FFA82FE2EF01F0E0EF11F0ED8
:10915000828AAEEB010E1FFA8EFE4EEA0202A3F8DF
:1091600000E082822B4BC0E903340020BDE8F0818F
:10917000977C92F813C047EA0C0783F8A670D7894A
:10918000128AA3F8A870A3F8AA20D1E7224FD7F833
:109190002080224F3F68C8F3026C07FA0CFCC8F32A
:1091A00002181F4F2CFA08FCA7FB0C7C4FEA9C1CF2
:1091B0001C4F41F2883808FB0CFCA7FB0C7C4FEAE3
:1091C0009C4C0CF1010CBCF1070F38BF4FF0070CA1
:1091D00012F080570AD05FFA8CF715F0805F83F8A1
:1091E000DE7040F2011708BF4FF48077920009D576
:1091F0005FFA8CFC47F40077AA0083F8DFC048BF11
:1092000047F00207CA68BFB25F82002A7FF468AFE6
:1092100015468DE74344415200E0014038130020D9
:10922000D34D621083DE1B432DE9F8430B880C46B7
:109230005B0222696669C968026203F1804303F533
:10924000B8230022036081614460C2613179627990
:109250000546A0788F074FEA0223F17843EA4033AE
:1092600054BF43F0400343F48863002900F0DF80DB
:1092700043F42073022A08BF764A9BB208BF32F833
:1092800021C0AB8218BF4FF0000C2279E1787078D2
:1092900096F800E0D20342EA410242EA4010EFF3BE
:1092A0001088012181F310886B4F2288D7F808912C
:1092B000C2F1100201FA02F229EA0202C7F80821FB
:1092C000D7F8082188F3108847F6FF572A6880B23C
:1092D0003B401380A2F810C0D08182F80CE03379B3
:1092E000980700F1AD8082F88A3094F90630002B9F
:1092F00022DB227A03F1604101F561411201D2B211
:1093000081F80023554A564942F8235003F1C00022
:109310005A0951F82070920002F160426FF3104731
:1093200041F8207002F5614203F01F03012101FAA8
:1093300003F3C2F88031136094F90730002B22DB6D
:10934000627A03F1604101F561411201D2B281F804
:109350000023424A424942F8235003F1C0005A090F
:1093600051F82040920002F160426FF3104441F83E
:10937000204002F5614203F01F03012101FA03F3CB
:10938000C2F88031136096F90630002B22DB327A66
:1093900003F1604101F561411201D2B281F800236D
:1093A0002E4A2F4942F8235003F1C0005A0951F8C0
:1093B0002040920002F160426FF3104441F82040D7
:1093C00002F5614203F01F03012101FA03F3C2F821
:1093D0008031136096F90730002B22DB727A1F4828
:1093E00003F1604101F561411201D2B281F800231D
:1093F00040F8235003F1C001194A52F821006FF3DD
:10940000104042F821005A09920002F1604202F530
:10941000614203F01F03012101FA03F3C2F8803116
:109420001360104BAB6000202861BDE8F883002A70
:109430007FF420AF43F400439BB2AB82944624E711
:1094400043F0030382F88A30084600F03DF92A68A9
:10945000337948E7C43E0100006F0440AC1200209D
:10946000006000404344415270B40021C0E9021141
:10947000436893F906205C698A4211DB5309364E32
:10948000203302F01F0C012505FA0CF546F8235095
:10949000BFF34F8FBFF36F8F304B43F822104368F9
:1094A00093F90730002B11DB5A092B4D03F01F0CE9
:1094B0002032012101FA0CF145F82210BFF34F8F41
:1094C000BFF36F8F254A002142F8231094F906302C
:1094D000002B11DB5A09204D03F01F0C2032012113
:1094E00001FA0CF145F82210BFF34F8FBFF36F8FD5
:1094F0001A4A002142F8231094F90730002B10DBA0
:1095000003F01F045A090121A1402032124C44F8F3
:109510002210BFF34F8FBFF36F8F104A002142F824
:109520002310036800221A821A80EFF310840123AB
:1095300083F3108840680A490088C0F11000834016
:10954000D1F808010343C1F80831D1F8083184F398
:109550001088104670BC704700E100E0AC1200209B
:10956000006F0440064B074993F826001A6A51F829
:1095700020300549C2F30262D3400B60704700BF40
:1095800000E001404C0200203813002038B5434B66
:10959000434C444844494AF20355A3F8FE53002281
:1095A000424DA0F8002121604FF4004193F82600BD
:1095B000C4E90151C4E90321196A626154F8202009
:1095C0003B4DC1F30261CA40082009212A6083F89B
:1095D000130483F8A21093F88024002A55D02F4B4F
:1095E000002283F8812483F8802493F8A0208AB194
:1095F00093F83620002A3FD0284A92F8A030D806A7
:10960000C3F30011F9D4254882F8A01090F8A030D7
:10961000D906FBD4214B002283F8362093F83C2056
:10962000D207FBD50121002283F8311083F82620D0
:10963000204A1A6293F8262054F822001C6A194A1C
:10964000C4F30264E04028604FF0040C842083F8E7
:109650003EC083F83E004FF4254083F8D010A3F8B5
:10966000FE03A2F80411B2F804319BB2002BFAD128
:109670000123A2F8003138BD93F83C20D207BBD4B7
:1096800093F83C20D207F7D5B6E7012183F8801480
:1096900040F2C44000F018F8A1E700BF00E001402C
:1096A0004C02002000C00140006CDC0200127A0075
:1096B0003813002000010110704700BFA0F1010025
:1096C0000028FBD1704700BF30B5144D144A00FB91
:1096D00001F14FF47A732868B2FBF0F2A1FB03C4E6
:1096E0004FF0FF304FF0000E60457EEB040407D3CF
:1096F000BCFBF2F0800878B1BDE83040FFF7DEBF78
:109700009200B1FBF2F1A1FB031388427EEB03034D
:10971000F2D308460028EFD130BD00BF3813002037
:1097200000CA9A3B0B4B70B5B3F840510A4E002467
:10973000ADB225FA04F3DB07E0B203D556F82430C6
:1097400003B198470134102CF3D1024BA3F83051E8
:1097500070BD00BF0060004068120020084B10B4CC
:10976000084C03F1200C5842C21813F8011FC032F4
:10977000634544F82210F7D15DF8044B704700BFF1
:10978000EB48010000600040EFF31081012383F3F8
:109790001088124B33F8102092B22AB133F81020FF
:1097A000013A92B223F8102033F810309BB293B9EB
:1097B0000B4A10B4B2F8FE330A4C9BB234F81000D6
:1097C00043F4254323EA0003A2F8FE3381F3108813
:1097D0005DF8044B704781F3108870472C1300200C
:1097E00000E00140D03E010030B4EFF310810123CE
:1097F00083F310880E4A32F810309BB26BB90D4CCF
:109800000D4DB4F8FE3335F810C09BB243EA0C039B
:1098100043F425439BB2A4F8FE3332F810300133F1
:109820009BB222F8103081F3108830BC704700BF23
:109830002C13002000E00140D03E01000B4A08B587
:109840000346106840B10333094923F0030303447E
:109850008B4204D8136008BD06481060F3E707F098
:109860005FF80C2303604FF0FF3008BD3413002075
:10987000007B0020702A002000BE704708B500F071
:1098800005F8FCF70BF8FEE7704700BF70B5464BD4
:10989000464A47484FF47004C3F888404AF20251E0
:1098A00098600123A2F8FE1382B082F81F3492F868
:1098B000B134DB06FBD500204FF425460446A2F860
:1098C000FE63FFF7E1FFFFF761FE8DF8074001201F
:1098D0009DF80730FFF788FFEFF31081012585F32E
:1098E0001088344BD3F8042122F00042C3F804213D
:1098F000D3F8042181F310882F4A1168C1F30001C5
:109900008DF807101168C1F300018DF80710126877
:10991000C2F300028DF80720EFF3108185F3108861
:10992000D3F8042142F00042C3F80421D3F80431F3
:1099300081F310882846FFF727FF2846FFF7A4FF8A
:109940001E4B1F499C801F4A1E8099601E49D9608A
:109950004FF48051A2F820111C481D4A9D80121A14
:10996000214607F041F81B481B4A1C491C4D121A9E
:1099700007F016F81B4B5B1BA3424FEAA30605DD5D
:1099800055F8043B01349847A642F9DCFFF7EAFD9D
:109990000220FFF779FFFFF7E1FE002002B0BDE8EB
:1099A0007040FFF789BE00BF00ED00E000E001401D
:1099B00000400000006F044000080440000D00401B
:1099C000007B002000600040007F00206802002033
:1099D000702A0020000000204C020020DC4B010017
:1099E00000020020340200200022027042608260E7
:1099F00080F83520012280F83620DF2282777047F8
:109A00002DE9F04104460F46984600230370017388
:109A10009DF82010017506990161079981610999E6
:109A200001620A9941628362FF2343773AB1012AB6
:109A30006CD0584B00221A702078BDE8F0810026C7
:109A400080F83560502006F0C3F8054680F82060A5
:109A500080F8216080F8226080F823604662866288
:109A6000C6628663C66306634663FF2380F842309E
:109A700080F84330DF2380F8443080F8453080F8A8
:109A8000406080F841608664C66400F12003A362F0
:109A90002022314606F0A8FFA560B8F1070FC8D80C
:109AA000022F02D03B4B1B7813B33B4B13F808300B
:109AB000012B14D9022FBCD184F81C8020354046DC
:109AC00002F0B8F93022816A284606F069FF404664
:109AD00002F0B0F9036BA36101232370A9E784F8B6
